{
  "contractName": "FlightSuretyData",
  "abi": [
    {
      "inputs": [],
      "payable": false,
      "stateMutability": "nonpayable",
      "type": "constructor",
      "signature": "constructor"
    },
    {
      "payable": true,
      "stateMutability": "payable",
      "type": "fallback"
    },
    {
      "constant": true,
      "inputs": [],
      "name": "numRegisteredAirlines",
      "outputs": [
        {
          "internalType": "uint256",
          "name": "",
          "type": "uint256"
        }
      ],
      "payable": false,
      "stateMutability": "view",
      "type": "function",
      "signature": "0xbe0b2b92"
    },
    {
      "constant": true,
      "inputs": [],
      "name": "isOperational",
      "outputs": [
        {
          "internalType": "bool",
          "name": "",
          "type": "bool"
        }
      ],
      "payable": false,
      "stateMutability": "view",
      "type": "function",
      "signature": "0xcd905dff"
    },
    {
      "constant": true,
      "inputs": [
        {
          "internalType": "address",
          "name": "airAddr",
          "type": "address"
        }
      ],
      "name": "isRegistered",
      "outputs": [
        {
          "internalType": "bool",
          "name": "",
          "type": "bool"
        }
      ],
      "payable": false,
      "stateMutability": "view",
      "type": "function",
      "signature": "0xc3c5a547"
    },
    {
      "constant": true,
      "inputs": [
        {
          "internalType": "address",
          "name": "airAddr",
          "type": "address"
        }
      ],
      "name": "isQueued",
      "outputs": [
        {
          "internalType": "bool",
          "name": "",
          "type": "bool"
        }
      ],
      "payable": false,
      "stateMutability": "view",
      "type": "function",
      "signature": "0x4f3e2843"
    },
    {
      "constant": true,
      "inputs": [
        {
          "internalType": "address",
          "name": "airAddr",
          "type": "address"
        }
      ],
      "name": "isFunded",
      "outputs": [
        {
          "internalType": "bool",
          "name": "",
          "type": "bool"
        }
      ],
      "payable": false,
      "stateMutability": "view",
      "type": "function",
      "signature": "0x5689b249"
    },
    {
      "constant": true,
      "inputs": [
        {
          "internalType": "address",
          "name": "airAddr",
          "type": "address"
        }
      ],
      "name": "alreadyQueued",
      "outputs": [
        {
          "internalType": "bool",
          "name": "",
          "type": "bool"
        }
      ],
      "payable": false,
      "stateMutability": "view",
      "type": "function",
      "signature": "0x0373298f"
    },
    {
      "constant": true,
      "inputs": [],
      "name": "regAirCount",
      "outputs": [
        {
          "internalType": "uint256",
          "name": "",
          "type": "uint256"
        }
      ],
      "payable": false,
      "stateMutability": "view",
      "type": "function",
      "signature": "0x0cf70b35"
    },
    {
      "constant": true,
      "inputs": [
        {
          "internalType": "address",
          "name": "airAddr",
          "type": "address"
        }
      ],
      "name": "airVoteCount",
      "outputs": [
        {
          "internalType": "uint256",
          "name": "",
          "type": "uint256"
        }
      ],
      "payable": false,
      "stateMutability": "view",
      "type": "function",
      "signature": "0xcf1af685"
    },
    {
      "constant": true,
      "inputs": [
        {
          "internalType": "address",
          "name": "airAddr",
          "type": "address"
        },
        {
          "internalType": "address",
          "name": "msgSender",
          "type": "address"
        }
      ],
      "name": "voteStatus",
      "outputs": [
        {
          "internalType": "bool",
          "name": "",
          "type": "bool"
        }
      ],
      "payable": false,
      "stateMutability": "view",
      "type": "function",
      "signature": "0xe9cbb604"
    },
    {
      "constant": true,
      "inputs": [
        {
          "internalType": "address",
          "name": "airline",
          "type": "address"
        },
        {
          "internalType": "string",
          "name": "flight",
          "type": "string"
        },
        {
          "internalType": "uint256",
          "name": "timestamp",
          "type": "uint256"
        }
      ],
      "name": "regFlightStatus",
      "outputs": [
        {
          "internalType": "bool",
          "name": "",
          "type": "bool"
        }
      ],
      "payable": false,
      "stateMutability": "view",
      "type": "function",
      "signature": "0x0af6746e"
    },
    {
      "constant": true,
      "inputs": [
        {
          "internalType": "bytes32",
          "name": "insuranceContractKey",
          "type": "bytes32"
        }
      ],
      "name": "insPurchaseStatus",
      "outputs": [
        {
          "internalType": "bool",
          "name": "",
          "type": "bool"
        }
      ],
      "payable": false,
      "stateMutability": "view",
      "type": "function",
      "signature": "0x4ddcf397"
    },
    {
      "constant": false,
      "inputs": [
        {
          "internalType": "bool",
          "name": "mode",
          "type": "bool"
        }
      ],
      "name": "setOperatingStatus",
      "outputs": [],
      "payable": false,
      "stateMutability": "nonpayable",
      "type": "function",
      "signature": "0x110466ed"
    },
    {
      "constant": false,
      "inputs": [
        {
          "internalType": "address",
          "name": "dataContract",
          "type": "address"
        }
      ],
      "name": "authCaller",
      "outputs": [],
      "payable": false,
      "stateMutability": "nonpayable",
      "type": "function",
      "signature": "0x157c38e3"
    },
    {
      "constant": false,
      "inputs": [
        {
          "internalType": "address",
          "name": "dataContract",
          "type": "address"
        }
      ],
      "name": "deauthCaller",
      "outputs": [],
      "payable": false,
      "stateMutability": "nonpayable",
      "type": "function",
      "signature": "0x25b409c8"
    },
    {
      "constant": false,
      "inputs": [
        {
          "internalType": "address",
          "name": "airAddr",
          "type": "address"
        },
        {
          "internalType": "string",
          "name": "airName",
          "type": "string"
        },
        {
          "internalType": "bool",
          "name": "isRegisteredBool",
          "type": "bool"
        }
      ],
      "name": "regAirline",
      "outputs": [],
      "payable": false,
      "stateMutability": "nonpayable",
      "type": "function",
      "signature": "0x324131d9"
    },
    {
      "constant": false,
      "inputs": [
        {
          "internalType": "address",
          "name": "airAddr",
          "type": "address"
        },
        {
          "internalType": "string",
          "name": "flightNum",
          "type": "string"
        },
        {
          "internalType": "uint256",
          "name": "departureTime",
          "type": "uint256"
        },
        {
          "internalType": "bytes32",
          "name": "flightKey",
          "type": "bytes32"
        }
      ],
      "name": "regFlight",
      "outputs": [],
      "payable": false,
      "stateMutability": "nonpayable",
      "type": "function",
      "signature": "0xaa5d0528"
    },
    {
      "constant": false,
      "inputs": [
        {
          "internalType": "address",
          "name": "airline",
          "type": "address"
        },
        {
          "internalType": "string",
          "name": "flightNum",
          "type": "string"
        },
        {
          "internalType": "uint256",
          "name": "departTime",
          "type": "uint256"
        },
        {
          "internalType": "address",
          "name": "passenger",
          "type": "address"
        },
        {
          "internalType": "uint256",
          "name": "insuranceAmt",
          "type": "uint256"
        },
        {
          "internalType": "uint256",
          "name": "payout",
          "type": "uint256"
        }
      ],
      "name": "buy",
      "outputs": [
        {
          "internalType": "uint256",
          "name": "",
          "type": "uint256"
        }
      ],
      "payable": true,
      "stateMutability": "payable",
      "type": "function",
      "signature": "0xa22a1af5"
    },
    {
      "constant": false,
      "inputs": [
        {
          "internalType": "address",
          "name": "airline",
          "type": "address"
        },
        {
          "internalType": "string",
          "name": "flight",
          "type": "string"
        },
        {
          "internalType": "uint256",
          "name": "timestamp",
          "type": "uint256"
        }
      ],
      "name": "creditInsurees",
      "outputs": [],
      "payable": false,
      "stateMutability": "nonpayable",
      "type": "function",
      "signature": "0xc8820a70"
    },
    {
      "constant": false,
      "inputs": [
        {
          "internalType": "address payable",
          "name": "passengerAddr",
          "type": "address"
        }
      ],
      "name": "pay",
      "outputs": [],
      "payable": true,
      "stateMutability": "payable",
      "type": "function",
      "signature": "0x0c11dedd"
    },
    {
      "constant": false,
      "inputs": [],
      "name": "fund",
      "outputs": [
        {
          "internalType": "bool",
          "name": "",
          "type": "bool"
        }
      ],
      "payable": true,
      "stateMutability": "payable",
      "type": "function",
      "signature": "0xb60d4288"
    },
    {
      "constant": false,
      "inputs": [
        {
          "internalType": "address",
          "name": "airAddr",
          "type": "address"
        },
        {
          "internalType": "uint256",
          "name": "initialFunding",
          "type": "uint256"
        }
      ],
      "name": "fundInitAirline",
      "outputs": [
        {
          "internalType": "bool",
          "name": "",
          "type": "bool"
        }
      ],
      "payable": true,
      "stateMutability": "payable",
      "type": "function",
      "signature": "0x312bb0d2"
    },
    {
      "constant": true,
      "inputs": [
        {
          "internalType": "address",
          "name": "airline",
          "type": "address"
        },
        {
          "internalType": "string",
          "name": "flight",
          "type": "string"
        },
        {
          "internalType": "uint256",
          "name": "timestamp",
          "type": "uint256"
        }
      ],
      "name": "getFlightKeyTest",
      "outputs": [
        {
          "internalType": "bytes32",
          "name": "",
          "type": "bytes32"
        }
      ],
      "payable": false,
      "stateMutability": "pure",
      "type": "function",
      "signature": "0x0d047a0d"
    },
    {
      "constant": false,
      "inputs": [
        {
          "internalType": "address",
          "name": "airline",
          "type": "address"
        },
        {
          "internalType": "string",
          "name": "flightNum",
          "type": "string"
        },
        {
          "internalType": "uint256",
          "name": "timestamp",
          "type": "uint256"
        },
        {
          "internalType": "uint8",
          "name": "updatedStatusCode",
          "type": "uint8"
        }
      ],
      "name": "processFlightStatus",
      "outputs": [],
      "payable": false,
      "stateMutability": "nonpayable",
      "type": "function",
      "signature": "0xe7bdde3b"
    },
    {
      "constant": true,
      "inputs": [
        {
          "internalType": "address",
          "name": "checkAirline",
          "type": "address"
        }
      ],
      "name": "checkAirReg",
      "outputs": [
        {
          "internalType": "bool",
          "name": "",
          "type": "bool"
        }
      ],
      "payable": false,
      "stateMutability": "view",
      "type": "function",
      "signature": "0x3d7686c6"
    },
    {
      "constant": false,
      "inputs": [
        {
          "internalType": "address",
          "name": "airAddr",
          "type": "address"
        }
      ],
      "name": "regQueuedAirline",
      "outputs": [
        {
          "internalType": "bool",
          "name": "",
          "type": "bool"
        }
      ],
      "payable": false,
      "stateMutability": "nonpayable",
      "type": "function",
      "signature": "0xfa0517e4"
    },
    {
      "constant": false,
      "inputs": [
        {
          "internalType": "address",
          "name": "airAddr",
          "type": "address"
        },
        {
          "internalType": "uint256",
          "name": "updatedVoteAmt",
          "type": "uint256"
        }
      ],
      "name": "voteForAirReg",
      "outputs": [],
      "payable": false,
      "stateMutability": "nonpayable",
      "type": "function",
      "signature": "0x598319cf"
    },
    {
      "constant": false,
      "inputs": [
        {
          "internalType": "address",
          "name": "airline",
          "type": "address"
        }
      ],
      "name": "clearRegAirline",
      "outputs": [],
      "payable": false,
      "stateMutability": "nonpayable",
      "type": "function",
      "signature": "0xf87d706f"
    }
  ],
  "bytecode": "0x60806040526001600060146101000a81548160ff02191690831515021790555060006001553480156200003157600080fd5b50336000806101000a81548173ffffffffffffffffffffffffffffffffffffffff021916908373ffffffffffffffffffffffffffffffffffffffff1602179055506001600260003373ffffffffffffffffffffffffffffffffffffffff1673ffffffffffffffffffffffffffffffffffffffff168152602001908152602001600020819055506001600060146101000a81548160ff02191690831515021790555033600360003373ffffffffffffffffffffffffffffffffffffffff1673ffffffffffffffffffffffffffffffffffffffff16815260200190815260200160002060000160006101000a81548173ffffffffffffffffffffffffffffffffffffffff021916908373ffffffffffffffffffffffffffffffffffffffff1602179055506040518060400160405280600b81526020017f496e697469616c20416972000000000000000000000000000000000000000000815250600360003373ffffffffffffffffffffffffffffffffffffffff1673ffffffffffffffffffffffffffffffffffffffff1681526020019081526020016000206001019080519060200190620001e092919062000390565b506001600360003373ffffffffffffffffffffffffffffffffffffffff1673ffffffffffffffffffffffffffffffffffffffff16815260200190815260200160002060020160006101000a81548160ff0219169083151502179055506001600360003373ffffffffffffffffffffffffffffffffffffffff1673ffffffffffffffffffffffffffffffffffffffff16815260200190815260200160002060020160016101000a81548160ff0219169083151502179055506000600360003373ffffffffffffffffffffffffffffffffffffffff1673ffffffffffffffffffffffffffffffffffffffff16815260200190815260200160002060020160026101000a81548160ff0219169083151502179055506000600360003373ffffffffffffffffffffffffffffffffffffffff1673ffffffffffffffffffffffffffffffffffffffff168152602001908152602001600020600301819055506000600360003373ffffffffffffffffffffffffffffffffffffffff1673ffffffffffffffffffffffffffffffffffffffff1681526020019081526020016000206004018190555060016004819055506200043f565b828054600181600116156101000203166002900490600052602060002090601f016020900481019282601f10620003d357805160ff191683800117855562000404565b8280016001018555821562000404579182015b8281111562000403578251825591602001919060010190620003e6565b5b50905062000413919062000417565b5090565b6200043c91905b80821115620004385760008160009055506001016200041e565b5090565b90565b612fff806200044f6000396000f3fe6080604052600436106101b9576000357c0100000000000000000000000000000000000000000000000000000000900480635689b24911610109578063c8820a70116100a7578063e7bdde3b11610081578063e7bdde3b14610be9578063e9cbb60414610ca6578063f87d706f14610d2f578063fa0517e414610d80576101b9565b8063c8820a7014610aa5578063cd905dff14610b55578063cf1af68514610b84576101b9565b8063aa5d0528116100e3578063aa5d052814610935578063b60d4288146109ef578063be0b2b9214610a11578063c3c5a54714610a3c576101b9565b80635689b24914610786578063598319cf146107ef578063a22a1af51461084a576101b9565b8063157c38e311610176578063324131d911610150578063324131d9146105af5780633d7686c6146106615780634ddcf397146106ca5780634f3e28431461071d576101b9565b8063157c38e3146104a757806325b409c8146104f8578063312bb0d214610549576101b9565b80630373298f146101c45780630af6746e1461022d5780630c11dedd146103375780630cf70b351461037b5780630d047a0d146103a6578063110466ed1461046a575b6101c1610de9565b50005b3480156101d057600080fd5b50610213600480360360208110156101e757600080fd5b81019080803573ffffffffffffffffffffffffffffffffffffffff16906020019092919050505061105d565b604051808215151515815260200191505060405180910390f35b34801561023957600080fd5b5061031d6004803603606081101561025057600080fd5b81019080803573ffffffffffffffffffffffffffffffffffffffff1690602001909291908035906020019064010000000081111561028d57600080fd5b82018360208201111561029f57600080fd5b803590602001918460018302840111640100000000831117156102c157600080fd5b91908080601f016020809104026020016040519081016040528093929190818152602001838380828437600081840152601f19601f820116905080830192505050505050509192919290803590602001909291905050506110b6565b604051808215151515815260200191505060405180910390f35b6103796004803603602081101561034d57600080fd5b81019080803573ffffffffffffffffffffffffffffffffffffffff1690602001909291905050506110ef565b005b34801561038757600080fd5b5061039061125e565b6040518082815260200191505060405180910390f35b3480156103b257600080fd5b50610454600480360360608110156103c957600080fd5b81019080803573ffffffffffffffffffffffffffffffffffffffff1690602001909291908035906020019064010000000081111561040657600080fd5b82018360208201111561041857600080fd5b8035906020019184600183028401116401000000008311171561043a57600080fd5b909192939192939080359060200190929190505050611268565b6040518082815260200191505060405180910390f35b34801561047657600080fd5b506104a56004803603602081101561048d57600080fd5b810190808035151590602001909291905050506112c3565b005b3480156104b357600080fd5b506104f6600480360360208110156104ca57600080fd5b81019080803573ffffffffffffffffffffffffffffffffffffffff1690602001909291905050506113a2565b005b34801561050457600080fd5b506105476004803603602081101561051b57600080fd5b81019080803573ffffffffffffffffffffffffffffffffffffffff1690602001909291905050506114ac565b005b6105956004803603604081101561055f57600080fd5b81019080803573ffffffffffffffffffffffffffffffffffffffff169060200190929190803590602001909291905050506115b4565b604051808215151515815260200191505060405180910390f35b3480156105bb57600080fd5b5061065f600480360360608110156105d257600080fd5b81019080803573ffffffffffffffffffffffffffffffffffffffff1690602001909291908035906020019064010000000081111561060f57600080fd5b82018360208201111561062157600080fd5b8035906020019184600183028401116401000000008311171561064357600080fd5b909192939192939080351515906020019092919050505061182b565b005b34801561066d57600080fd5b506106b06004803603602081101561068457600080fd5b81019080803573ffffffffffffffffffffffffffffffffffffffff169060200190929190505050611b23565b604051808215151515815260200191505060405180910390f35b3480156106d657600080fd5b50610703600480360360208110156106ed57600080fd5b8101908080359060200190929190505050611be0565b604051808215151515815260200191505060405180910390f35b34801561072957600080fd5b5061076c6004803603602081101561074057600080fd5b81019080803573ffffffffffffffffffffffffffffffffffffffff169060200190929190505050611c0d565b604051808215151515815260200191505060405180910390f35b34801561079257600080fd5b506107d5600480360360208110156107a957600080fd5b81019080803573ffffffffffffffffffffffffffffffffffffffff169060200190929190505050611c66565b604051808215151515815260200191505060405180910390f35b3480156107fb57600080fd5b506108486004803603604081101561081257600080fd5b81019080803573ffffffffffffffffffffffffffffffffffffffff16906020019092919080359060200190929190505050611cbf565b005b61091f600480360360c081101561086057600080fd5b81019080803573ffffffffffffffffffffffffffffffffffffffff1690602001909291908035906020019064010000000081111561089d57600080fd5b8201836020820111156108af57600080fd5b803590602001918460018302840111640100000000831117156108d157600080fd5b909192939192939080359060200190929190803573ffffffffffffffffffffffffffffffffffffffff1690602001909291908035906020019092919080359060200190929190505050611e07565b6040518082815260200191505060405180910390f35b34801561094157600080fd5b506109ed6004803603608081101561095857600080fd5b81019080803573ffffffffffffffffffffffffffffffffffffffff1690602001909291908035906020019064010000000081111561099557600080fd5b8201836020820111156109a757600080fd5b803590602001918460018302840111640100000000831117156109c957600080fd5b909192939192939080359060200190929190803590602001909291905050506121a4565b005b6109f7610de9565b604051808215151515815260200191505060405180910390f35b348015610a1d57600080fd5b50610a266123da565b6040518082815260200191505060405180910390f35b348015610a4857600080fd5b50610a8b60048036036020811015610a5f57600080fd5b81019080803573ffffffffffffffffffffffffffffffffffffffff1690602001909291905050506123e0565b604051808215151515815260200191505060405180910390f35b348015610ab157600080fd5b50610b5360048036036060811015610ac857600080fd5b81019080803573ffffffffffffffffffffffffffffffffffffffff16906020019092919080359060200190640100000000811115610b0557600080fd5b820183602082011115610b1757600080fd5b80359060200191846001830284011164010000000083111715610b3957600080fd5b909192939192939080359060200190929190505050612439565b005b348015610b6157600080fd5b50610b6a612843565b604051808215151515815260200191505060405180910390f35b348015610b9057600080fd5b50610bd360048036036020811015610ba757600080fd5b81019080803573ffffffffffffffffffffffffffffffffffffffff169060200190929190505050612859565b6040518082815260200191505060405180910390f35b348015610bf557600080fd5b50610ca460048036036080811015610c0c57600080fd5b81019080803573ffffffffffffffffffffffffffffffffffffffff16906020019092919080359060200190640100000000811115610c4957600080fd5b820183602082011115610c5b57600080fd5b80359060200191846001830284011164010000000083111715610c7d57600080fd5b909192939192939080359060200190929190803560ff1690602001909291905050506128a5565b005b348015610cb257600080fd5b50610d1560048036036040811015610cc957600080fd5b81019080803573ffffffffffffffffffffffffffffffffffffffff169060200190929190803573ffffffffffffffffffffffffffffffffffffffff16906020019092919050505061298e565b604051808215151515815260200191505060405180910390f35b348015610d3b57600080fd5b50610d7e60048036036020811015610d5257600080fd5b81019080803573ffffffffffffffffffffffffffffffffffffffff169060200190929190505050612a35565b005b348015610d8c57600080fd5b50610dcf60048036036020811015610da357600080fd5b81019080803573ffffffffffffffffffffffffffffffffffffffff169060200190929190505050612bb6565b604051808215151515815260200191505060405180910390f35b60008060149054906101000a900460ff16610e4f576040517f08c379a0000000000000000000000000000000000000000000000000000000008152600401808060200182810382526025815260200180612fa66025913960400191505060405180910390fd5b6000341015610ec6576040517f08c379a000000000000000000000000000000000000000000000000000000000815260040180806020018281038252601c8152602001807f4d73672076616c7565206e6f742067726561746572207468616e20300000000081525060200191505060405180910390fd5b6000600360003373ffffffffffffffffffffffffffffffffffffffff1673ffffffffffffffffffffffffffffffffffffffff1681526020019081526020016000206003015490506000610f223483612c9290919063ffffffff16565b905080600360003373ffffffffffffffffffffffffffffffffffffffff1673ffffffffffffffffffffffffffffffffffffffff1681526020019081526020016000206003018190555034600154016001819055506000809054906101000a900473ffffffffffffffffffffffffffffffffffffffff1673ffffffffffffffffffffffffffffffffffffffff166108fc349081150290604051600060405180830381858888f19350505050158015610fdd573d6000803e3d6000fd5b50678ac7230489e800008110611053576001600360003373ffffffffffffffffffffffffffffffffffffffff1673ffffffffffffffffffffffffffffffffffffffff16815260200190815260200160002060020160026101000a81548160ff02191690831515021790555060019250505061105a565b6000925050505b90565b6000600360008373ffffffffffffffffffffffffffffffffffffffff1673ffffffffffffffffffffffffffffffffffffffff16815260200190815260200160002060020160009054906101000a900460ff169050919050565b6000600560006110c7868686612cac565b815260200190815260200160002060010160009054906101000a900460ff1690509392505050565b600060149054906101000a900460ff16611154576040517f08c379a0000000000000000000000000000000000000000000000000000000008152600401808060200182810382526025815260200180612fa66025913960400191505060405180910390fd5b6000600760008373ffffffffffffffffffffffffffffffffffffffff1673ffffffffffffffffffffffffffffffffffffffff168152602001908152602001600020600101549050600154811115611213576040517f08c379a000000000000000000000000000000000000000000000000000000000815260040180806020018281038252601b8152602001807f4e6f7420656e6f7567682066756e647320666f72207061796f7574000000000081525060200191505060405180910390fd5b8173ffffffffffffffffffffffffffffffffffffffff166108fc829081150290604051600060405180830381858888f19350505050158015611259573d6000803e3d6000fd5b505050565b6000600454905090565b60006112b98585858080601f016020809104026020016040519081016040528093929190818152602001838380828437600081840152601f19601f8201169050808301925050505050505084612cac565b9050949350505050565b6000809054906101000a900473ffffffffffffffffffffffffffffffffffffffff1673ffffffffffffffffffffffffffffffffffffffff163373ffffffffffffffffffffffffffffffffffffffff1614611385576040517f08c379a000000000000000000000000000000000000000000000000000000000815260040180806020018281038252601c8152602001807f43616c6c6572206973206e6f7420636f6e7472616374206f776e65720000000081525060200191505060405180910390fd5b80600060146101000a81548160ff02191690831515021790555050565b6000809054906101000a900473ffffffffffffffffffffffffffffffffffffffff1673ffffffffffffffffffffffffffffffffffffffff163373ffffffffffffffffffffffffffffffffffffffff1614611464576040517f08c379a000000000000000000000000000000000000000000000000000000000815260040180806020018281038252601c8152602001807f43616c6c6572206973206e6f7420636f6e7472616374206f776e65720000000081525060200191505060405180910390fd5b6001600260008373ffffffffffffffffffffffffffffffffffffffff1673ffffffffffffffffffffffffffffffffffffffff1681526020019081526020016000208190555050565b6000809054906101000a900473ffffffffffffffffffffffffffffffffffffffff1673ffffffffffffffffffffffffffffffffffffffff163373ffffffffffffffffffffffffffffffffffffffff161461156e576040517f08c379a000000000000000000000000000000000000000000000000000000000815260040180806020018281038252601c8152602001807f43616c6c6572206973206e6f7420636f6e7472616374206f776e65720000000081525060200191505060405180910390fd5b600260008273ffffffffffffffffffffffffffffffffffffffff1673ffffffffffffffffffffffffffffffffffffffff1681526020019081526020016000206000905550565b60008060149054906101000a900460ff1661161a576040517f08c379a0000000000000000000000000000000000000000000000000000000008152600401808060200182810382526025815260200180612fa66025913960400191505060405180910390fd5b6000341015611691576040517f08c379a000000000000000000000000000000000000000000000000000000000815260040180806020018281038252601c8152602001807f4d73672076616c7565206e6f742067726561746572207468616e20300000000081525060200191505060405180910390fd5b6000600360008573ffffffffffffffffffffffffffffffffffffffff1673ffffffffffffffffffffffffffffffffffffffff16815260200190815260200160002060030154905060006116ed8483612c9290919063ffffffff16565b905080600360008773ffffffffffffffffffffffffffffffffffffffff1673ffffffffffffffffffffffffffffffffffffffff1681526020019081526020016000206003018190555083600154016001819055506000809054906101000a900473ffffffffffffffffffffffffffffffffffffffff1673ffffffffffffffffffffffffffffffffffffffff166108fc859081150290604051600060405180830381858888f193505050501580156117a8573d6000803e3d6000fd5b50678ac7230489e80000811061181e576001600360008773ffffffffffffffffffffffffffffffffffffffff1673ffffffffffffffffffffffffffffffffffffffff16815260200190815260200160002060020160026101000a81548160ff021916908315150217905550600192505050611825565b6000925050505b92915050565b600060149054906101000a900460ff16611890576040517f08c379a0000000000000000000000000000000000000000000000000000000008152600401808060200182810382526025815260200180612fa66025913960400191505060405180910390fd5b600360008573ffffffffffffffffffffffffffffffffffffffff1673ffffffffffffffffffffffffffffffffffffffff16815260200190815260200160002060020160019054906101000a900460ff1615611953576040517f08c379a000000000000000000000000000000000000000000000000000000000815260040180806020018281038252601e8152602001807f4169726c696e6520697320616c726561647920726567697374657265642e000081525060200191505060405180910390fd5b6040518060e001604052808573ffffffffffffffffffffffffffffffffffffffff16815260200184848080601f016020809104026020016040519081016040528093929190818152602001838380828437600081840152601f19601f8201169050808301925050505050505081526020016001151581526020018215158152602001600015158152602001600081526020016001815250600360008673ffffffffffffffffffffffffffffffffffffffff1673ffffffffffffffffffffffffffffffffffffffff16815260200190815260200160002060008201518160000160006101000a81548173ffffffffffffffffffffffffffffffffffffffff021916908373ffffffffffffffffffffffffffffffffffffffff1602179055506020820151816001019080519060200190611a8c929190612e80565b5060408201518160020160006101000a81548160ff02191690831515021790555060608201518160020160016101000a81548160ff02191690831515021790555060808201518160020160026101000a81548160ff02191690831515021790555060a0820151816003015560c082015181600401559050508015611b1d576004600081548092919060010191905055505b50505050565b60008060149054906101000a900460ff16611b89576040517f08c379a0000000000000000000000000000000000000000000000000000000008152600401808060200182810382526025815260200180612fa66025913960400191505060405180910390fd5b600360008373ffffffffffffffffffffffffffffffffffffffff1673ffffffffffffffffffffffffffffffffffffffff16815260200190815260200160002060020160019054906101000a900460ff169050919050565b60006006600083815260200190815260200160002060060160009054906101000a900460ff169050919050565b6000600360008373ffffffffffffffffffffffffffffffffffffffff1673ffffffffffffffffffffffffffffffffffffffff16815260200190815260200160002060020160009054906101000a900460ff169050919050565b6000600360008373ffffffffffffffffffffffffffffffffffffffff1673ffffffffffffffffffffffffffffffffffffffff16815260200190815260200160002060020160029054906101000a900460ff169050919050565b600060149054906101000a900460ff16611d24576040517f08c379a0000000000000000000000000000000000000000000000000000000008152600401808060200182810382526025815260200180612fa66025913960400191505060405180910390fd5b6001600360008473ffffffffffffffffffffffffffffffffffffffff1673ffffffffffffffffffffffffffffffffffffffff16815260200190815260200160002060050160003373ffffffffffffffffffffffffffffffffffffffff1673ffffffffffffffffffffffffffffffffffffffff16815260200190815260200160002060006101000a81548160ff02191690831515021790555080600360008473ffffffffffffffffffffffffffffffffffffffff1673ffffffffffffffffffffffffffffffffffffffff168152602001908152602001600020600401819055505050565b600080611e5a8989898080601f016020809104026020016040519081016040528093929190818152602001838380828437600081840152601f19601f820116905080830192505050505050508888612d74565b90506000611ead8a8a8a8080601f016020809104026020016040519081016040528093929190818152602001838380828437600081840152601f19601f8201169050808301925050505050505089612cac565b90506040518061010001604052808b73ffffffffffffffffffffffffffffffffffffffff1681526020018a8a8080601f016020809104026020016040519081016040528093929190818152602001838380828437600081840152601f19601f8201169050808301925050505050505081526020018881526020018681526020018773ffffffffffffffffffffffffffffffffffffffff168152602001600015158152602001858152602001600115158152506006600084815260200190815260200160002060008201518160000160006101000a81548173ffffffffffffffffffffffffffffffffffffffff021916908373ffffffffffffffffffffffffffffffffffffffff1602179055506020820151816001019080519060200190611fd5929190612e80565b50604082015181600201556060820151816003015560808201518160040160006101000a81548173ffffffffffffffffffffffffffffffffffffffff021916908373ffffffffffffffffffffffffffffffffffffffff16021790555060a08201518160040160146101000a81548160ff02191690831515021790555060c0820151816005015560e08201518160060160006101000a81548160ff021916908315150217905550905050600060016005600084815260200190815260200160002060050154019050826005600084815260200190815260200160002060040182815481106120be57fe5b9060005260206000200181905550806005600084815260200190815260200160002060050181905550600060056000848152602001908152602001600020600601549050858101600560008581526020019081526020016000206006018190555034600154016001819055506000809054906101000a900473ffffffffffffffffffffffffffffffffffffffff1673ffffffffffffffffffffffffffffffffffffffff166108fc349081150290604051600060405180830381858888f19350505050158015612191573d6000803e3d6000fd5b5081945050505050979650505050505050565b600060149054906101000a900460ff16612209576040517f08c379a0000000000000000000000000000000000000000000000000000000008152600401808060200182810382526025815260200180612fa66025913960400191505060405180910390fd5b600015156005600083815260200190815260200160002060010160009054906101000a900460ff161515146122a6576040517f08c379a000000000000000000000000000000000000000000000000000000000815260040180806020018281038252601c8152602001807f466c6967687420697320616c726561647920726567697374657265640000000081525060200191505060405180910390fd5b83836005600084815260200190815260200160002060000191906122cb929190612f00565b5060016005600083815260200190815260200160002060010160006101000a81548160ff02191690831515021790555060006005600083815260200190815260200160002060010160016101000a81548160ff021916908360ff16021790555081600560008381526020019081526020016000206002018190555060006005600083815260200190815260200160002060050181905550846005600083815260200190815260200160002060030160006101000a81548173ffffffffffffffffffffffffffffffffffffffff021916908373ffffffffffffffffffffffffffffffffffffffff160217905550600060056000838152602001908152602001600020600601819055505050505050565b60045481565b6000600360008373ffffffffffffffffffffffffffffffffffffffff1673ffffffffffffffffffffffffffffffffffffffff16815260200190815260200160002060020160019054906101000a900460ff169050919050565b8383838080601f016020809104026020016040519081016040528093929190818152602001838380828437600081840152601f19601f8201169050808301925050505050505082600060056000612491868686612cac565b81526020019081526020016000206006015460015403101561251b576040517f08c379a000000000000000000000000000000000000000000000000000000000815260040180806020018281038252601b8152602001807f4e6f7420656e6f7567682066756e647320666f72207061796f7574000000000081525060200191505060405180910390fd5b600061256c8888888080601f016020809104026020016040519081016040528093929190818152602001838380828437600081840152601f19601f8201169050808301925050505050505087612cac565b905060008090505b60056000838152602001908152602001600020600401805490508110156128385760006005600084815260200190815260200160002060040182815481106125b857fe5b9060005260206000200154905060006006600083815260200190815260200160002060040160009054906101000a900473ffffffffffffffffffffffffffffffffffffffff16905060006006600084815260200190815260200160002060050154905060016006600085815260200190815260200160002060040160146101000a81548160ff021916908315150217905550600760008373ffffffffffffffffffffffffffffffffffffffff1673ffffffffffffffffffffffffffffffffffffffff16815260200190815260200160002060020160009054906101000a900460ff161561273557600081600760008573ffffffffffffffffffffffffffffffffffffffff1673ffffffffffffffffffffffffffffffffffffffff1681526020019081526020016000206001015401905080600760008573ffffffffffffffffffffffffffffffffffffffff1673ffffffffffffffffffffffffffffffffffffffff168152602001908152602001600020600101819055505061281d565b60405180606001604052808373ffffffffffffffffffffffffffffffffffffffff16815260200182815260200160011515815250600760008473ffffffffffffffffffffffffffffffffffffffff1673ffffffffffffffffffffffffffffffffffffffff16815260200190815260200160002060008201518160000160006101000a81548173ffffffffffffffffffffffffffffffffffffffff021916908373ffffffffffffffffffffffffffffffffffffffff1602179055506020820151816001015560408201518160020160006101000a81548160ff0219169083151502179055509050505b80600154036001819055505050508080600101915050612574565b505050505050505050565b60008060149054906101000a900460ff16905090565b6000600360008373ffffffffffffffffffffffffffffffffffffffff1673ffffffffffffffffffffffffffffffffffffffff168152602001908152602001600020600401549050919050565b600060149054906101000a900460ff1661290a576040517f08c379a0000000000000000000000000000000000000000000000000000000008152600401808060200182810382526025815260200180612fa66025913960400191505060405180910390fd5b806005600061295e8888888080601f016020809104026020016040519081016040528093929190818152602001838380828437600081840152601f19601f8201169050808301925050505050505087612cac565b815260200190815260200160002060010160016101000a81548160ff021916908360ff1602179055505050505050565b6000600360008473ffffffffffffffffffffffffffffffffffffffff1673ffffffffffffffffffffffffffffffffffffffff16815260200190815260200160002060050160008373ffffffffffffffffffffffffffffffffffffffff1673ffffffffffffffffffffffffffffffffffffffff16815260200190815260200160002060009054906101000a900460ff16612a2a5760009050612a2f565b600190505b92915050565b6040518060e00160405280600073ffffffffffffffffffffffffffffffffffffffff168152602001604051806020016040528060008152508152602001600015158152602001600015158152602001600015158152602001600081526020016000815250600360008373ffffffffffffffffffffffffffffffffffffffff1673ffffffffffffffffffffffffffffffffffffffff16815260200190815260200160002060008201518160000160006101000a81548173ffffffffffffffffffffffffffffffffffffffff021916908373ffffffffffffffffffffffffffffffffffffffff1602179055506020820151816001019080519060200190612b3b929190612e80565b5060408201518160020160006101000a81548160ff02191690831515021790555060608201518160020160016101000a81548160ff02191690831515021790555060808201518160020160026101000a81548160ff02191690831515021790555060a0820151816003015560c0820151816004015590505050565b60008060149054906101000a900460ff16612c1c576040517f08c379a0000000000000000000000000000000000000000000000000000000008152600401808060200182810382526025815260200180612fa66025913960400191505060405180910390fd5b6001600360008473ffffffffffffffffffffffffffffffffffffffff1673ffffffffffffffffffffffffffffffffffffffff16815260200190815260200160002060020160016101000a81548160ff02191690831515021790555060046000815480929190600101919050555060019050919050565b6000818301905082811015612ca357fe5b80905092915050565b6000838383604051602001808473ffffffffffffffffffffffffffffffffffffffff1673ffffffffffffffffffffffffffffffffffffffff166c0100000000000000000000000002815260140183805190602001908083835b60208310612d285780518252602082019150602081019050602083039250612d05565b6001836020036101000a03801982511681845116808217855250505050505090500182815260200193505050506040516020818303038152906040528051906020012090509392505050565b600084848484604051602001808573ffffffffffffffffffffffffffffffffffffffff1673ffffffffffffffffffffffffffffffffffffffff166c0100000000000000000000000002815260140184805190602001908083835b60208310612df15780518252602082019150602081019050602083039250612dce565b6001836020036101000a0380198251168184511680821785525050505050509050018381526020018273ffffffffffffffffffffffffffffffffffffffff1673ffffffffffffffffffffffffffffffffffffffff166c01000000000000000000000000028152601401945050505050604051602081830303815290604052805190602001209050949350505050565b828054600181600116156101000203166002900490600052602060002090601f016020900481019282601f10612ec157805160ff1916838001178555612eef565b82800160010185558215612eef579182015b82811115612eee578251825591602001919060010190612ed3565b5b509050612efc9190612f80565b5090565b828054600181600116156101000203166002900490600052602060002090601f016020900481019282601f10612f4157803560ff1916838001178555612f6f565b82800160010185558215612f6f579182015b82811115612f6e578235825591602001919060010190612f53565b5b509050612f7c9190612f80565b5090565b612fa291905b80821115612f9e576000816000905550600101612f86565b5090565b9056fe436f6e74726163742069732063757272656e746c79206e6f74206f7065726174696f6e616ca265627a7a723158205a790938407cea80323882e6bd1f8906153851c89b79c9ce10f7a96d6b7050a364736f6c63430005110032",
  "source": "pragma solidity ^0.5.10;\r\n\r\nimport \"../node_modules/openzeppelin-solidity/contracts/math/SafeMath.sol\";\r\n\r\ncontract FlightSuretyData {\r\n    using SafeMath for uint256;\r\n\r\n    /********************************************************************************************/\r\n    /*                                       DATA VARIABLES                                     */\r\n    /********************************************************************************************/\r\n\r\n    address payable private contractOwner;                                      // Account used to deploy contract\r\n    bool private operational = true;                                    // Blocks all state changes throughout the contract if false\r\n    uint256 private fundsAvail = 0;\r\n\r\n    mapping(address => uint256) private authorizedContracts;\r\n\r\n    //Flight Status Codes\r\n    uint8 private constant STATUS_CODE_UNKNOWN = 0;\r\n    uint8 private constant STATUS_CODE_ON_TIME = 10;\r\n    uint8 private constant STATUS_CODE_LATE_AIRLINE = 20;\r\n    uint8 private constant STATUS_CODE_LATE_WEATHER = 30;\r\n    uint8 private constant STATUS_CODE_LATE_TECHNICAL = 40;\r\n    uint8 private constant STATUS_CODE_LATE_OTHER = 50;\r\n\r\n    struct Airline {\r\n        address airAddr;\r\n        string airName;\r\n        bool isQueued;\r\n        bool isRegistered;\r\n        bool isFunded;\r\n        uint256 fundingAmt;\r\n        uint256 voteAmt;\r\n        mapping(address => bool) voters;\r\n    }\r\n    mapping(address => Airline) private airlines;\r\n\r\n    uint256 public numRegisteredAirlines;\r\n\r\n    struct Flight {\r\n        string flightNum;\r\n        bool isRegistered;\r\n        uint8 statusCode;\r\n        uint256 departTime;\r\n        address airline;\r\n        bytes32[] writtenContracts;\r\n        uint256 numContracts;\r\n        uint256 riskAmt;\r\n    }\r\n    mapping(bytes32 => Flight) private flights;\r\n\r\n    struct InsuranceContract {\r\n        address airAddr;\r\n        string flightNum;\r\n        uint256 departTime;\r\n        uint256 insuranceAmt;\r\n        address passengerAddr;\r\n        bool isPaid;\r\n        uint256 payAmt;\r\n        bool isActive;\r\n    }\r\n    mapping(bytes32 => InsuranceContract) private insuranceContracts;\r\n    \r\n    struct Passenger {\r\n        address passengerAddr;\r\n        uint256 creditAmount;\r\n        bool exists;\r\n    }\r\n    mapping(address => Passenger) private passengers;\r\n\r\n    /********************************************************************************************/\r\n    /*                                       EVENT DEFINITIONS                                  */\r\n    /********************************************************************************************/\r\n\r\n\r\n    /**\r\n    * @dev Constructor\r\n    *      The deploying account becomes contractOwner\r\n    */\r\n    constructor\r\n                                (\r\n                                ) \r\n                                public \r\n    {\r\n        contractOwner = msg.sender;\r\n        authorizedContracts[msg.sender] = 1;\r\n        operational = true;\r\n\r\n        airlines[msg.sender].airAddr = msg.sender;\r\n        airlines[msg.sender].airName = \"Initial Air\";\r\n        airlines[msg.sender].isQueued = true;\r\n        airlines[msg.sender].isRegistered = true;\r\n        airlines[msg.sender].isFunded = false;\r\n        airlines[msg.sender].fundingAmt = 0;\r\n        airlines[msg.sender].voteAmt = 0;\r\n\r\n        numRegisteredAirlines = 1;\r\n\r\n    }\r\n\r\n    /********************************************************************************************/\r\n    /*                                       FUNCTION MODIFIERS                                 */\r\n    /********************************************************************************************/\r\n\r\n    // Modifiers help avoid duplication of code. They are typically used to validate something\r\n    // before a function is allowed to be executed.\r\n\r\n    /**\r\n    * @dev Modifier that requires the \"operational\" boolean variable to be \"true\"\r\n    *      This is used on all state changing functions to pause the contract in \r\n    *      the event there is an issue that needs to be fixed\r\n    */\r\n    modifier requireIsOperational() \r\n    {\r\n        require(operational, \"Contract is currently not operational\");\r\n        _;  // All modifiers require an \"_\" which indicates where the function body will be added\r\n    }\r\n\r\n    /**\r\n    * @dev Modifier that requires the \"ContractOwner\" account to be the function caller\r\n    */\r\n    modifier requireContractOwner()\r\n    {\r\n        require(msg.sender == contractOwner, \"Caller is not contract owner\");\r\n        _;\r\n    }\r\n\r\n    modifier requirePositiveValue()\r\n    {\r\n        require(msg.value >= 0, \"Msg value not greater than 0\");\r\n        _;\r\n    }\r\n\r\n    modifier requireSufficientBalance(address airline, string memory flight, uint256 timestamp)\r\n    {\r\n        require((fundsAvail - (flights[getFlightKey(airline, flight, timestamp)].riskAmt) >= 0), \"Not enough funds for payout\");\r\n        _;\r\n    }\r\n\r\n    // ADD NOTPAID MODIFIER LIKE IN ROW 108 OF Eamon??\r\n    // {\r\n    //     require(, \"\");\r\n    //     _;\r\n    // }\r\n\r\n    /********************************************************************************************/\r\n    /*                                       UTILITY FUNCTIONS                                  */\r\n    /********************************************************************************************/\r\n\r\n    /**\r\n    * @dev Get operating status of contract\r\n    *\r\n    * @return A bool that is the current operating status\r\n    */      \r\n    function isOperational() \r\n                            public \r\n                            view \r\n                            returns(bool) \r\n    {\r\n        return operational;\r\n    }\r\n\r\n    function isRegistered(address airAddr)\r\n                            public\r\n                            view\r\n                            returns(bool)\r\n    {\r\n        return airlines[airAddr].isRegistered;\r\n    }\r\n    \r\n    function isQueued(address airAddr)\r\n                            public\r\n                            view\r\n                            returns(bool)\r\n    {\r\n        return airlines[airAddr].isQueued;\r\n    }\r\n    \r\n    function isFunded(address airAddr)\r\n                            public\r\n                            view\r\n                            returns(bool)\r\n    {\r\n        return airlines[airAddr].isFunded;\r\n    }\r\n\r\n    function alreadyQueued(address airAddr)\r\n                            public\r\n                            view\r\n                            returns(bool)\r\n    {\r\n        return airlines[airAddr].isQueued;\r\n    }\r\n\r\n    function regAirCount()\r\n                            public\r\n                            view\r\n                            returns(uint256)\r\n    {\r\n        return numRegisteredAirlines;\r\n    }\r\n\r\n    function airVoteCount(address airAddr)\r\n                            public\r\n                            view\r\n                            returns(uint256) {\r\n        return airlines[airAddr].voteAmt;\r\n    }\r\n\r\n    function voteStatus(address airAddr, address msgSender)\r\n                            public\r\n                            view\r\n                            returns(bool) {\r\n        if(!airlines[airAddr].voters[msgSender]) {\r\n            return false;\r\n        } else {\r\n            return true;\r\n        }        \r\n    }\r\n    \r\n    function regFlightStatus(address airline, string memory flight, uint256 timestamp)\r\n                            public\r\n                            view\r\n                            returns(bool) {\r\n        \r\n        return (flights[getFlightKey(airline, flight, timestamp)].isRegistered);\r\n    }\r\n    \r\n    function insPurchaseStatus(bytes32 insuranceContractKey)\r\n                            public\r\n                            view\r\n                            returns(bool)\r\n    {\r\n        return insuranceContracts[insuranceContractKey].isActive;                        \r\n    }\r\n  \r\n    /**\r\n    * @dev Sets contract operations on/off\r\n    *\r\n    * When operational mode is disabled, all write transactions except for this one will fail\r\n    */    \r\n    function setOperatingStatus\r\n                            (\r\n                                bool mode\r\n                            ) \r\n                            external\r\n                            requireContractOwner \r\n    {\r\n        operational = mode;\r\n    }\r\n\r\n    function authCaller(address dataContract) external requireContractOwner {\r\n        authorizedContracts[dataContract] = 1;\r\n    }\r\n\r\n    function deauthCaller(address dataContract) external requireContractOwner {\r\n        delete authorizedContracts[dataContract];\r\n    }\r\n\r\n    /********************************************************************************************/\r\n    /*                                     SMART CONTRACT FUNCTIONS                             */\r\n    /********************************************************************************************/\r\n\r\n   /**\r\n    * @dev Add an airline to the registration queue\r\n    *      Can only be called from FlightSuretyApp contract\r\n    *\r\n    */   \r\n    \r\n    function regAirline\r\n                            (\r\n                                address airAddr,\r\n                                string calldata airName,\r\n                                bool isRegisteredBool\r\n                            )\r\n                            external\r\n                            requireIsOperational\r\n    {\r\n    \r\n        require(!airlines[airAddr].isRegistered, \"Airline is already registered.\");\r\n\r\n        airlines[airAddr] = Airline({\r\n                                                airAddr: airAddr,\r\n                                                airName: airName,\r\n                                                isQueued: true,\r\n                                                isRegistered: isRegisteredBool,\r\n                                                isFunded: false,\r\n                                                fundingAmt: 0,\r\n                                                voteAmt: 1       \r\n                                            });\r\n\r\n        if(isRegisteredBool) {\r\n            numRegisteredAirlines++;\r\n        }\r\n    }\r\n\r\n\r\n    /**\r\n    * @dev Register a future flight for insuring.\r\n    *\r\n    */  \r\n    function regFlight\r\n                                (\r\n                                    address airAddr,\r\n                                    string calldata flightNum,\r\n                                    uint256 departureTime,\r\n                                    bytes32 flightKey\r\n                                )\r\n                                requireIsOperational\r\n                                external\r\n    {\r\n\r\n        require(flights[flightKey].isRegistered == false, \"Flight is already registered\");\r\n        \r\n\r\n        flights[flightKey].flightNum = flightNum;\r\n        flights[flightKey].isRegistered = true;\r\n        flights[flightKey].statusCode = STATUS_CODE_UNKNOWN;\r\n        flights[flightKey].departTime = departureTime;\r\n        flights[flightKey].numContracts = 0;\r\n        flights[flightKey].airline = airAddr;\r\n        flights[flightKey].riskAmt = 0;\r\n    }\r\n\r\n   /**\r\n    * @dev Buy insurance for a flight\r\n    *\r\n    */   \r\n    function buy\r\n                            (\r\n                                address airline,\r\n                                string calldata flightNum,\r\n                                uint256 departTime,\r\n                                address passenger,\r\n                                uint256 insuranceAmt,\r\n                                uint256 payout\r\n                            )\r\n                            external\r\n                            payable\r\n                            returns(uint256)\r\n    {\r\n        bytes32 insuranceContractKey = getInsContractKey(airline, flightNum, departTime, passenger);    // msg.sender is passenger\r\n        bytes32 flightKey = getFlightKey(airline, flightNum, departTime);\r\n\r\n        \r\n        insuranceContracts[insuranceContractKey] = InsuranceContract ({\r\n                                                airAddr: airline,\r\n                                                flightNum: flightNum, \r\n                                                departTime: departTime,\r\n                                                insuranceAmt: insuranceAmt,\r\n                                                passengerAddr: passenger,       // msg.sender\r\n                                                isPaid: false,\r\n                                                payAmt: payout,\r\n                                                isActive: true\r\n                                        });\r\n\r\n        uint256 updatedNumContracts = flights[flightKey].numContracts + 1;\r\n        flights[flightKey].writtenContracts[updatedNumContracts] = insuranceContractKey;\r\n        flights[flightKey].numContracts = updatedNumContracts;\r\n\r\n        uint256 currentLiability = flights[flightKey].riskAmt;\r\n        flights[flightKey].riskAmt = currentLiability + payout;\r\n\r\n        fundsAvail = fundsAvail + msg.value;\r\n        contractOwner.transfer(msg.value);\r\n        return updatedNumContracts;\r\n    }\r\n\r\n\r\n    /**\r\n     *  @dev Credits payouts to insurees\r\n    */\r\n    function creditInsurees\r\n                                (\r\n                                    address airline,\r\n                                    string calldata flight,\r\n                                    uint256 timestamp\r\n                                )\r\n                                external\r\n                                requireSufficientBalance(airline, flight, timestamp)\r\n    {\r\n        bytes32 flightKey = getFlightKey(airline, flight, timestamp);\r\n\r\n        for (uint256 i = 0; i < flights[flightKey].writtenContracts.length; i++) {\r\n            bytes32 insuranceContractKey = flights[flightKey].writtenContracts[i];\r\n\r\n            address _passengerAddr = insuranceContracts[insuranceContractKey].passengerAddr;\r\n            uint256 _payAmt = insuranceContracts[insuranceContractKey].payAmt;\r\n\r\n            insuranceContracts[insuranceContractKey].isPaid = true;\r\n\r\n            if(passengers[_passengerAddr].exists){\r\n\r\n                uint256 updatedCreditAmount = passengers[_passengerAddr].creditAmount + _payAmt;\r\n                passengers[_passengerAddr].creditAmount = updatedCreditAmount;\r\n            \r\n            } else {\r\n\r\n                passengers[_passengerAddr] = Passenger({\r\n                                                passengerAddr: _passengerAddr,\r\n                                                creditAmount: _payAmt, \r\n                                                exists: true\r\n                                        });\r\n\r\n            } \r\n\r\n            fundsAvail = fundsAvail - _payAmt;\r\n        }\r\n    }\r\n    \r\n\r\n    /**\r\n     *  @dev Transfers eligible payout funds to insuree\r\n     *\r\n    */\r\n    function pay\r\n                            (\r\n                                address payable passengerAddr\r\n                            )\r\n                            external\r\n                            payable\r\n                            requireIsOperational\r\n    {\r\n        uint256 payment = passengers[passengerAddr].creditAmount;\r\n\r\n        require(payment <= fundsAvail, \"Not enough funds for payout\");\r\n\r\n        passengerAddr.transfer(payment);\r\n    }\r\n\r\n   /**\r\n    * @dev Initial funding for the insurance. Unless there are too many delayed flights\r\n    *      resulting in insurance payouts, the contract should be self-sustaining\r\n    *\r\n    */   \r\n    function fund\r\n                            (   \r\n                            )\r\n                            public\r\n                            payable\r\n                            requireIsOperational\r\n                            requirePositiveValue\r\n                            returns(bool)\r\n    {\r\n        uint256 currentFunds = airlines[msg.sender].fundingAmt;\r\n        uint256 newFundingAmt = currentFunds.add(msg.value);\r\n        airlines[msg.sender].fundingAmt = newFundingAmt;\r\n        fundsAvail = fundsAvail + msg.value;\r\n        contractOwner.transfer(msg.value);\r\n\r\n        if(newFundingAmt >= 10 ether){\r\n            airlines[msg.sender].isFunded = true;\r\n            return true;\r\n        } else {\r\n            return false;\r\n        }\r\n    }\r\n\r\n    function fundInitAirline\r\n                        (\r\n                            address airAddr,\r\n                            uint256 initialFunding\r\n                        )\r\n                        public\r\n                        payable\r\n                        requireIsOperational\r\n                        requirePositiveValue\r\n                        returns(bool)\r\n    {\r\n        uint256 currentFunds = airlines[airAddr].fundingAmt;\r\n        uint256 newFundingAmt = currentFunds.add(initialFunding);\r\n        airlines[airAddr].fundingAmt = newFundingAmt;\r\n        fundsAvail = fundsAvail + initialFunding;\r\n        contractOwner.transfer(initialFunding);\r\n\r\n        if(newFundingAmt >= 10 ether){\r\n            airlines[airAddr].isFunded = true;\r\n            return true;\r\n        } else {\r\n            return false;\r\n        }    \r\n    }\r\n\r\n    function getFlightKey\r\n                        (\r\n                            address airline,\r\n                            string memory flight,\r\n                            uint256 timestamp\r\n                        )\r\n                        pure\r\n                        internal\r\n                        returns(bytes32) \r\n    {\r\n        return keccak256(abi.encodePacked(airline, flight, timestamp));\r\n    }\r\n\r\n    function getFlightKeyTest\r\n                        (\r\n                            address airline,\r\n                            string calldata flight,\r\n                            uint256 timestamp\r\n                        )\r\n                        pure\r\n                        external\r\n                        returns(bytes32) \r\n    {\r\n        return getFlightKey(airline, flight, timestamp);\r\n    }\r\n\r\n    function processFlightStatus\r\n                                (\r\n                                    address airline, \r\n                                    string calldata flightNum,\r\n                                    uint256 timestamp,       // departure time\r\n                                    uint8 updatedStatusCode\r\n                                )\r\n                                requireIsOperational\r\n                                external\r\n    {\r\n        flights[getFlightKey(airline, flightNum, timestamp)].statusCode = updatedStatusCode;\r\n    }\r\n\r\n    /**\r\n    * @dev Fallback function for funding smart contract.\r\n    *\r\n    */\r\n    function() \r\n                            external \r\n                            payable\r\n                            \r\n    {\r\n        fund();\r\n    }\r\n\r\n    /**\r\n    * @dev check if airline is registered\r\n    *      Can only be called from FlightSuretyApp contract\r\n    *\r\n    */   \r\n    function checkAirReg(address checkAirline) external view requireIsOperational  returns(bool) {\r\n        return airlines[checkAirline].isRegistered;\r\n    }\r\n\r\n    function regQueuedAirline(address airAddr) \r\n                            external\r\n                            requireIsOperational\r\n                            returns(bool)\r\n    {\r\n        airlines[airAddr].isRegistered = true;\r\n        numRegisteredAirlines++;\r\n        return true;\r\n    }\r\n\r\n    function voteForAirReg(address airAddr, uint256 updatedVoteAmt) \r\n                            external\r\n                            requireIsOperational\r\n    {\r\n        airlines[airAddr].voters[msg.sender] = true;\r\n        airlines[airAddr].voteAmt = updatedVoteAmt;\r\n    }\r\n\r\n    function getInsContractKey\r\n                        (\r\n                            address airline,\r\n                            string memory flight,\r\n                            uint256 timestamp,\r\n                            address passenger\r\n                        )\r\n                        pure\r\n                        internal\r\n                        returns(bytes32) \r\n    {\r\n        return keccak256(abi.encodePacked(airline, flight, timestamp, passenger));\r\n    }\r\n\r\n    function clearRegAirline\r\n                        (     \r\n                            address airline                     \r\n                        )\r\n                        external\r\n    {\r\n        airlines[airline] = Airline({\r\n                                                airAddr: address(0),\r\n                                                airName: '', \r\n                                                isQueued: false,\r\n                                                isRegistered: false,\r\n                                                isFunded: false,\r\n                                                fundingAmt: 0,\r\n                                                voteAmt: 0\r\n                                        });\r\n\r\n        if(numRegisteredAirlines != 1){\r\n            numRegisteredAirlines == 1;\r\n        }\r\n    }\r\n}\r\n\r\n",
  "sourcePath": "C:\\Users\\mzeil\\Desktop\\Working Files\\CC5 Project Submission\\GitClone\\FlightSurety\\contracts\\FlightSuretyData.sol",
  "compiler": {
    "name": "solc",
    "version": "0.5.17+commit.d19bba13.Emscripten.clang"
  },
  "schemaVersion": "3.0.3",
  "updatedAt": "2022-08-30T04:07:52.405Z",
  "devdoc": {
    "methods": {
      "buy(address,string,uint256,address,uint256,uint256)": {
        "details": "Buy insurance for a flight     "
      },
      "checkAirReg(address)": {
        "details": "check if airline is registered     Can only be called from FlightSuretyApp contract     "
      },
      "constructor": {
        "details": "Constructor     The deploying account becomes contractOwner"
      },
      "creditInsurees(address,string,uint256)": {
        "details": "Credits payouts to insurees"
      },
      "fund()": {
        "details": "Initial funding for the insurance. Unless there are too many delayed flights     resulting in insurance payouts, the contract should be self-sustaining     "
      },
      "isOperational()": {
        "details": "Get operating status of contract ",
        "return": "A bool that is the current operating status"
      },
      "pay(address)": {
        "details": "Transfers eligible payout funds to insuree     "
      },
      "regAirline(address,string,bool)": {
        "details": "Add an airline to the registration queue     Can only be called from FlightSuretyApp contract     "
      },
      "regFlight(address,string,uint256,bytes32)": {
        "details": "Register a future flight for insuring.     "
      },
      "setOperatingStatus(bool)": {
        "details": "Sets contract operations on/off     * When operational mode is disabled, all write transactions except for this one will fail"
      }
    }
  },
  "userdoc": {
    "methods": {}
  }
}