{
  "contractName": "FlightSuretyApp",
  "abi": [
    {
      "inputs": [
        {
          "internalType": "address payable",
          "name": "datacontract",
          "type": "address"
        }
      ],
      "payable": false,
      "stateMutability": "nonpayable",
      "type": "constructor",
      "signature": "constructor"
    },
    {
      "anonymous": false,
      "inputs": [
        {
          "indexed": false,
          "internalType": "address",
          "name": "airline",
          "type": "address"
        },
        {
          "indexed": false,
          "internalType": "string",
          "name": "flight",
          "type": "string"
        },
        {
          "indexed": false,
          "internalType": "uint256",
          "name": "timestamp",
          "type": "uint256"
        },
        {
          "indexed": false,
          "internalType": "uint8",
          "name": "status",
          "type": "uint8"
        }
      ],
      "name": "FlightStatusInfo",
      "type": "event",
      "signature": "0xe23f5229de535c091e3b7bec2665f5d698192d3b31393066e8987b7a05076b6c"
    },
    {
      "anonymous": false,
      "inputs": [
        {
          "indexed": false,
          "internalType": "address",
          "name": "airline",
          "type": "address"
        },
        {
          "indexed": false,
          "internalType": "string",
          "name": "flight",
          "type": "string"
        },
        {
          "indexed": false,
          "internalType": "uint256",
          "name": "timestamp",
          "type": "uint256"
        },
        {
          "indexed": false,
          "internalType": "uint8",
          "name": "status",
          "type": "uint8"
        }
      ],
      "name": "OracleReport",
      "type": "event",
      "signature": "0x43c853095c2752648493c88b4baac4d580d2594ffb00c6f1d4242d844514f783"
    },
    {
      "anonymous": false,
      "inputs": [
        {
          "indexed": false,
          "internalType": "uint8",
          "name": "index",
          "type": "uint8"
        },
        {
          "indexed": false,
          "internalType": "address",
          "name": "airline",
          "type": "address"
        },
        {
          "indexed": false,
          "internalType": "string",
          "name": "flight",
          "type": "string"
        },
        {
          "indexed": false,
          "internalType": "uint256",
          "name": "timestamp",
          "type": "uint256"
        }
      ],
      "name": "OracleRequest",
      "type": "event",
      "signature": "0x3ed01f2c3fc24c6b329d931e35b03e390d23497d22b3f90e15b600343e93df11"
    },
    {
      "constant": true,
      "inputs": [],
      "name": "MAX_INS_PRICE",
      "outputs": [
        {
          "internalType": "uint256",
          "name": "",
          "type": "uint256"
        }
      ],
      "payable": false,
      "stateMutability": "view",
      "type": "function",
      "signature": "0x1cdf36de"
    },
    {
      "constant": true,
      "inputs": [],
      "name": "MIN_FUNDS",
      "outputs": [
        {
          "internalType": "uint256",
          "name": "",
          "type": "uint256"
        }
      ],
      "payable": false,
      "stateMutability": "view",
      "type": "function",
      "signature": "0x8478de88"
    },
    {
      "constant": true,
      "inputs": [],
      "name": "REGISTRATION_FEE",
      "outputs": [
        {
          "internalType": "uint256",
          "name": "",
          "type": "uint256"
        }
      ],
      "payable": false,
      "stateMutability": "view",
      "type": "function",
      "signature": "0x64b4f751"
    },
    {
      "constant": true,
      "inputs": [],
      "name": "isOperational",
      "outputs": [
        {
          "internalType": "bool",
          "name": "",
          "type": "bool"
        }
      ],
      "payable": false,
      "stateMutability": "view",
      "type": "function",
      "signature": "0xcd905dff"
    },
    {
      "constant": true,
      "inputs": [
        {
          "internalType": "address",
          "name": "airlineAddress",
          "type": "address"
        }
      ],
      "name": "isRegistered",
      "outputs": [
        {
          "internalType": "bool",
          "name": "",
          "type": "bool"
        }
      ],
      "payable": false,
      "stateMutability": "view",
      "type": "function",
      "signature": "0xc3c5a547"
    },
    {
      "constant": true,
      "inputs": [
        {
          "internalType": "address",
          "name": "airlineAddress",
          "type": "address"
        }
      ],
      "name": "isFunded",
      "outputs": [
        {
          "internalType": "bool",
          "name": "",
          "type": "bool"
        }
      ],
      "payable": false,
      "stateMutability": "view",
      "type": "function",
      "signature": "0x5689b249"
    },
    {
      "constant": true,
      "inputs": [
        {
          "internalType": "address",
          "name": "airlineAddress",
          "type": "address"
        }
      ],
      "name": "alreadyQueued",
      "outputs": [
        {
          "internalType": "bool",
          "name": "",
          "type": "bool"
        }
      ],
      "payable": false,
      "stateMutability": "view",
      "type": "function",
      "signature": "0x0373298f"
    },
    {
      "constant": false,
      "inputs": [
        {
          "internalType": "address",
          "name": "newAirlineAddress",
          "type": "address"
        },
        {
          "internalType": "string",
          "name": "airlineName",
          "type": "string"
        }
      ],
      "name": "regAirline",
      "outputs": [
        {
          "internalType": "bool",
          "name": "success",
          "type": "bool"
        }
      ],
      "payable": false,
      "stateMutability": "nonpayable",
      "type": "function",
      "signature": "0x2a9d5f1d"
    },
    {
      "constant": false,
      "inputs": [
        {
          "internalType": "address",
          "name": "airlineAddress",
          "type": "address"
        },
        {
          "internalType": "uint256",
          "name": "updatedNumVotes",
          "type": "uint256"
        }
      ],
      "name": "voteForAirReg",
      "outputs": [
        {
          "internalType": "bool",
          "name": "",
          "type": "bool"
        }
      ],
      "payable": false,
      "stateMutability": "nonpayable",
      "type": "function",
      "signature": "0x598319cf"
    },
    {
      "constant": false,
      "inputs": [
        {
          "internalType": "string",
          "name": "flightNumber",
          "type": "string"
        },
        {
          "internalType": "uint256",
          "name": "departureTime",
          "type": "uint256"
        }
      ],
      "name": "regFlight",
      "outputs": [],
      "payable": false,
      "stateMutability": "nonpayable",
      "type": "function",
      "signature": "0x965c3362"
    },
    {
      "constant": false,
      "inputs": [
        {
          "internalType": "string",
          "name": "flight1",
          "type": "string"
        },
        {
          "internalType": "uint256",
          "name": "timestamp1",
          "type": "uint256"
        },
        {
          "internalType": "string",
          "name": "flight2",
          "type": "string"
        },
        {
          "internalType": "uint256",
          "name": "timestamp2",
          "type": "uint256"
        },
        {
          "internalType": "string",
          "name": "flight3",
          "type": "string"
        },
        {
          "internalType": "uint256",
          "name": "timestamp3",
          "type": "uint256"
        }
      ],
      "name": "fundAirlineAndRegisterInitialFlights",
      "outputs": [],
      "payable": true,
      "stateMutability": "payable",
      "type": "function",
      "signature": "0x6ff6b236"
    },
    {
      "constant": false,
      "inputs": [],
      "name": "fund",
      "outputs": [
        {
          "internalType": "bool",
          "name": "",
          "type": "bool"
        }
      ],
      "payable": true,
      "stateMutability": "payable",
      "type": "function",
      "signature": "0xb60d4288"
    },
    {
      "constant": false,
      "inputs": [],
      "name": "withdrawPayouts",
      "outputs": [
        {
          "internalType": "bool",
          "name": "",
          "type": "bool"
        }
      ],
      "payable": true,
      "stateMutability": "payable",
      "type": "function",
      "signature": "0x6c440208"
    },
    {
      "constant": false,
      "inputs": [
        {
          "internalType": "address",
          "name": "airline",
          "type": "address"
        },
        {
          "internalType": "string",
          "name": "flightNumber",
          "type": "string"
        },
        {
          "internalType": "uint256",
          "name": "departureTime",
          "type": "uint256"
        },
        {
          "internalType": "uint256",
          "name": "insuranceAmount",
          "type": "uint256"
        }
      ],
      "name": "buy",
      "outputs": [],
      "payable": true,
      "stateMutability": "payable",
      "type": "function",
      "signature": "0x1c79558a"
    },
    {
      "constant": false,
      "inputs": [
        {
          "internalType": "address",
          "name": "airline",
          "type": "address"
        },
        {
          "internalType": "string",
          "name": "flight",
          "type": "string"
        },
        {
          "internalType": "uint256",
          "name": "timestamp",
          "type": "uint256"
        }
      ],
      "name": "fetchFlightStatus",
      "outputs": [],
      "payable": false,
      "stateMutability": "nonpayable",
      "type": "function",
      "signature": "0xf83f11c0"
    },
    {
      "constant": false,
      "inputs": [],
      "name": "registerOracle",
      "outputs": [],
      "payable": true,
      "stateMutability": "payable",
      "type": "function",
      "signature": "0x339d2590"
    },
    {
      "constant": true,
      "inputs": [],
      "name": "getMyIndexes",
      "outputs": [
        {
          "internalType": "uint8[3]",
          "name": "",
          "type": "uint8[3]"
        }
      ],
      "payable": false,
      "stateMutability": "view",
      "type": "function",
      "signature": "0x5f1cc0e6"
    },
    {
      "constant": false,
      "inputs": [
        {
          "internalType": "uint8",
          "name": "index",
          "type": "uint8"
        },
        {
          "internalType": "address",
          "name": "airline",
          "type": "address"
        },
        {
          "internalType": "string",
          "name": "flight",
          "type": "string"
        },
        {
          "internalType": "uint256",
          "name": "timestamp",
          "type": "uint256"
        },
        {
          "internalType": "uint8",
          "name": "statusCode",
          "type": "uint8"
        }
      ],
      "name": "submitOracleResponse",
      "outputs": [],
      "payable": false,
      "stateMutability": "nonpayable",
      "type": "function",
      "signature": "0xc10f2700"
    }
  ],
  "bytecode": "0x60806040526000600160146101000a81548160ff021916908360ff16021790555034801561002c57600080fd5b5060405162004906380380620049068339818101604052602081101561005157600080fd5b8101908080519060200190929190505050336000806101000a81548173ffffffffffffffffffffffffffffffffffffffff021916908373ffffffffffffffffffffffffffffffffffffffff16021790555080600160006101000a81548173ffffffffffffffffffffffffffffffffffffffff021916908373ffffffffffffffffffffffffffffffffffffffff1602179055505061481280620000f46000396000f3fe608060405260043610610126576000357c0100000000000000000000000000000000000000000000000000000000900480636c440208116100b2578063b60d428811610081578063b60d428814610772578063c10f270014610794578063c3c5a5471461085e578063cd905dff146108c7578063f83f11c0146108f657610126565b80636c4402081461048e5780636ff6b236146104b05780638478de88146106b7578063965c3362146106e257610126565b8063339d2590116100f9578063339d25901461032a5780635689b24914610334578063598319cf1461039d5780635f1cc0e61461041057806364b4f7511461046357610126565b80630373298f1461012b5780631c79558a146101945780631cdf36de146102415780632a9d5f1d1461026c575b600080fd5b34801561013757600080fd5b5061017a6004803603602081101561014e57600080fd5b81019080803573ffffffffffffffffffffffffffffffffffffffff1690602001909291905050506109a6565b604051808215151515815260200191505060405180910390f35b61023f600480360360808110156101aa57600080fd5b81019080803573ffffffffffffffffffffffffffffffffffffffff169060200190929190803590602001906401000000008111156101e757600080fd5b8201836020820111156101f957600080fd5b8035906020019184600183028401116401000000008311171561021b57600080fd5b90919293919293908035906020019092919080359060200190929190505050610aa5565b005b34801561024d57600080fd5b50610256610fb4565b6040518082815260200191505060405180910390f35b34801561027857600080fd5b506103106004803603604081101561028f57600080fd5b81019080803573ffffffffffffffffffffffffffffffffffffffff169060200190929190803590602001906401000000008111156102cc57600080fd5b8201836020820111156102de57600080fd5b8035906020019184600183028401116401000000008311171561030057600080fd5b9091929391929390505050610fc0565b604051808215151515815260200191505060405180910390f35b610332611d91565b005b34801561034057600080fd5b506103836004803603602081101561035757600080fd5b81019080803573ffffffffffffffffffffffffffffffffffffffff169060200190929190505050611eb7565b604051808215151515815260200191505060405180910390f35b3480156103a957600080fd5b506103f6600480360360408110156103c057600080fd5b81019080803573ffffffffffffffffffffffffffffffffffffffff16906020019092919080359060200190929190505050611fb6565b604051808215151515815260200191505060405180910390f35b34801561041c57600080fd5b506104256124e0565b6040518082600360200280838360005b83811015610450578082015181840152602081019050610435565b5050505090500191505060405180910390f35b34801561046f57600080fd5b50610478612653565b6040518082815260200191505060405180910390f35b61049661265f565b604051808215151515815260200191505060405180910390f35b6106b5600480360360c08110156104c657600080fd5b81019080803590602001906401000000008111156104e357600080fd5b8201836020820111156104f557600080fd5b8035906020019184600183028401116401000000008311171561051757600080fd5b91908080601f016020809104026020016040519081016040528093929190818152602001838380828437600081840152601f19601f820116905080830192505050505050509192919290803590602001909291908035906020019064010000000081111561058457600080fd5b82018360208201111561059657600080fd5b803590602001918460018302840111640100000000831117156105b857600080fd5b91908080601f016020809104026020016040519081016040528093929190818152602001838380828437600081840152601f19601f820116905080830192505050505050509192919290803590602001909291908035906020019064010000000081111561062557600080fd5b82018360208201111561063757600080fd5b8035906020019184600183028401116401000000008311171561065957600080fd5b91908080601f016020809104026020016040519081016040528093929190818152602001838380828437600081840152601f19601f8201169050808301925050505050505091929192908035906020019092919050505061284d565b005b3480156106c357600080fd5b506106cc612d7c565b6040518082815260200191505060405180910390f35b3480156106ee57600080fd5b506107706004803603604081101561070557600080fd5b810190808035906020019064010000000081111561072257600080fd5b82018360208201111561073457600080fd5b8035906020019184600183028401116401000000008311171561075657600080fd5b909192939192939080359060200190929190505050612d88565b005b61077a6132a4565b604051808215151515815260200191505060405180910390f35b3480156107a057600080fd5b5061085c600480360360a08110156107b757600080fd5b81019080803560ff169060200190929190803573ffffffffffffffffffffffffffffffffffffffff1690602001909291908035906020019064010000000081111561080157600080fd5b82018360208201111561081357600080fd5b8035906020019184600183028401116401000000008311171561083557600080fd5b909192939192939080359060200190929190803560ff1690602001909291905050506134f6565b005b34801561086a57600080fd5b506108ad6004803603602081101561088157600080fd5b81019080803573ffffffffffffffffffffffffffffffffffffffff169060200190929190505050613a41565b604051808215151515815260200191505060405180910390f35b3480156108d357600080fd5b506108dc613b40565b604051808215151515815260200191505060405180910390f35b34801561090257600080fd5b506109a46004803603606081101561091957600080fd5b81019080803573ffffffffffffffffffffffffffffffffffffffff1690602001909291908035906020019064010000000081111561095657600080fd5b82018360208201111561096857600080fd5b8035906020019184600183028401116401000000008311171561098a57600080fd5b909192939192939080359060200190929190505050613c06565b005b6000600160009054906101000a900473ffffffffffffffffffffffffffffffffffffffff1673ffffffffffffffffffffffffffffffffffffffff16630373298f836040518263ffffffff167c0100000000000000000000000000000000000000000000000000000000028152600401808273ffffffffffffffffffffffffffffffffffffffff1673ffffffffffffffffffffffffffffffffffffffff16815260200191505060206040518083038186803b158015610a6357600080fd5b505afa158015610a77573d6000803e3d6000fd5b505050506040513d6020811015610a8d57600080fd5b81019080805190602001909291905050509050919050565b600160009054906101000a900473ffffffffffffffffffffffffffffffffffffffff1673ffffffffffffffffffffffffffffffffffffffff1663cd905dff6040518163ffffffff167c010000000000000000000000000000000000000000000000000000000002815260040160206040518083038186803b158015610b2957600080fd5b505afa158015610b3d573d6000803e3d6000fd5b505050506040513d6020811015610b5357600080fd5b8101908080519060200190929190505050610bb9576040517f08c379a000000000000000000000000000000000000000000000000000000000815260040180806020018281038252602581526020018061476f6025913960400191505060405180910390fd5b6000341015610c30576040517f08c379a000000000000000000000000000000000000000000000000000000000815260040180806020018281038252601c8152602001807f4d73672076616c7565206e6f742067726561746572207468616e20300000000081525060200191505060405180910390fd5b8484848080601f016020809104026020016040519081016040528093929190818152602001838380828437600081840152601f19601f8201169050808301925050505050505083600160009054906101000a900473ffffffffffffffffffffffffffffffffffffffff1673ffffffffffffffffffffffffffffffffffffffff16634ddcf397610cc185858533613e22565b6040518263ffffffff167c01000000000000000000000000000000000000000000000000000000000281526004018082815260200191505060206040518083038186803b158015610d1157600080fd5b505afa158015610d25573d6000803e3d6000fd5b505050506040513d6020811015610d3b57600080fd5b810190808051906020019092919050505015610da2576040517f08c379a00000000000000000000000000000000000000000000000000000000081526004018080602001828103825260348152602001806146c16034913960400191505060405180910390fd5b83670de0b6b3a7640000811115610e04576040517f08c379a00000000000000000000000000000000000000000000000000000000081526004018080602001828103825260278152602001806147b76027913960400191505060405180910390fd5b6000610e2d6002610e1f600389613f2e90919063ffffffff16565b613f6290919063ffffffff16565b9050600160009054906101000a900473ffffffffffffffffffffffffffffffffffffffff1673ffffffffffffffffffffffffffffffffffffffff1663a22a1af58b8b8b8b338c886040518863ffffffff167c0100000000000000000000000000000000000000000000000000000000028152600401808873ffffffffffffffffffffffffffffffffffffffff1673ffffffffffffffffffffffffffffffffffffffff168152602001806020018681526020018573ffffffffffffffffffffffffffffffffffffffff1673ffffffffffffffffffffffffffffffffffffffff1681526020018481526020018381526020018281038252888882818152602001925080828437600081840152601f19601f82011690508083019250505098505050505050505050602060405180830381600087803b158015610f6c57600080fd5b505af1158015610f80573d6000803e3d6000fd5b505050506040513d6020811015610f9657600080fd5b81019080805190602001909291905050505050505050505050505050565b670de0b6b3a764000081565b6000600160009054906101000a900473ffffffffffffffffffffffffffffffffffffffff1673ffffffffffffffffffffffffffffffffffffffff1663cd905dff6040518163ffffffff167c010000000000000000000000000000000000000000000000000000000002815260040160206040518083038186803b15801561104657600080fd5b505afa15801561105a573d6000803e3d6000fd5b505050506040513d602081101561107057600080fd5b81019080805190602001909291905050506110d6576040517f08c379a000000000000000000000000000000000000000000000000000000000815260040180806020018281038252602581526020018061476f6025913960400191505060405180910390fd5b600160009054906101000a900473ffffffffffffffffffffffffffffffffffffffff1673ffffffffffffffffffffffffffffffffffffffff1663c3c5a547336040518263ffffffff167c0100000000000000000000000000000000000000000000000000000000028152600401808273ffffffffffffffffffffffffffffffffffffffff1673ffffffffffffffffffffffffffffffffffffffff16815260200191505060206040518083038186803b15801561119157600080fd5b505afa1580156111a5573d6000803e3d6000fd5b505050506040513d60208110156111bb57600080fd5b8101908080519060200190929190505050611221576040517f08c379a000000000000000000000000000000000000000000000000000000000815260040180806020018281038252602a81526020018061471e602a913960400191505060405180910390fd5b600160009054906101000a900473ffffffffffffffffffffffffffffffffffffffff1673ffffffffffffffffffffffffffffffffffffffff16635689b249336040518263ffffffff167c0100000000000000000000000000000000000000000000000000000000028152600401808273ffffffffffffffffffffffffffffffffffffffff1673ffffffffffffffffffffffffffffffffffffffff16815260200191505060206040518083038186803b1580156112dc57600080fd5b505afa1580156112f0573d6000803e3d6000fd5b505050506040513d602081101561130657600080fd5b810190808051906020019092919050505061136c576040517f08c379a000000000000000000000000000000000000000000000000000000000815260040180806020018281038252602681526020018061469b6026913960400191505060405180910390fd5b83600160009054906101000a900473ffffffffffffffffffffffffffffffffffffffff1673ffffffffffffffffffffffffffffffffffffffff1663c3c5a547826040518263ffffffff167c0100000000000000000000000000000000000000000000000000000000028152600401808273ffffffffffffffffffffffffffffffffffffffff1673ffffffffffffffffffffffffffffffffffffffff16815260200191505060206040518083038186803b15801561142857600080fd5b505afa15801561143c573d6000803e3d6000fd5b505050506040513d602081101561145257600080fd5b8101908080519060200190929190505050156114b9576040517f08c379a00000000000000000000000000000000000000000000000000000000081526004018080602001828103825260278152602001806147486027913960400191505060405180910390fd5b600073ffffffffffffffffffffffffffffffffffffffff168573ffffffffffffffffffffffffffffffffffffffff16141561153f576040517f08c379a00000000000000000000000000000000000000000000000000000000081526004018080602001828103825260298152602001806146f56029913960400191505060405180910390fd5b6000600160009054906101000a900473ffffffffffffffffffffffffffffffffffffffff1673ffffffffffffffffffffffffffffffffffffffff16630373298f876040518263ffffffff167c0100000000000000000000000000000000000000000000000000000000028152600401808273ffffffffffffffffffffffffffffffffffffffff1673ffffffffffffffffffffffffffffffffffffffff16815260200191505060206040518083038186803b1580156115fc57600080fd5b505afa158015611610573d6000803e3d6000fd5b505050506040513d602081101561162657600080fd5b810190808051906020019092919050505090506000600160009054906101000a900473ffffffffffffffffffffffffffffffffffffffff1673ffffffffffffffffffffffffffffffffffffffff16630cf70b356040518163ffffffff167c010000000000000000000000000000000000000000000000000000000002815260040160206040518083038186803b1580156116bf57600080fd5b505afa1580156116d3573d6000803e3d6000fd5b505050506040513d60208110156116e957600080fd5b810190808051906020019092919050505090506000600160009054906101000a900473ffffffffffffffffffffffffffffffffffffffff1673ffffffffffffffffffffffffffffffffffffffff1663cf1af685896040518263ffffffff167c0100000000000000000000000000000000000000000000000000000000028152600401808273ffffffffffffffffffffffffffffffffffffffff1673ffffffffffffffffffffffffffffffffffffffff16815260200191505060206040518083038186803b1580156117b957600080fd5b505afa1580156117cd573d6000803e3d6000fd5b505050506040513d60208110156117e357600080fd5b81019080805190602001909291905050509050600460ff1682101561191d57600160009054906101000a900473ffffffffffffffffffffffffffffffffffffffff1673ffffffffffffffffffffffffffffffffffffffff1663324131d989898960016040518563ffffffff167c0100000000000000000000000000000000000000000000000000000000028152600401808573ffffffffffffffffffffffffffffffffffffffff1673ffffffffffffffffffffffffffffffffffffffff16815260200180602001831515151581526020018281038252858582818152602001925080828437600081840152601f19601f82011690508083019250505095505050505050600060405180830381600087803b15801561190057600080fd5b505af1158015611914573d6000803e3d6000fd5b50505050611d85565b8215611c6257600160009054906101000a900473ffffffffffffffffffffffffffffffffffffffff1673ffffffffffffffffffffffffffffffffffffffff1663e9cbb60489336040518363ffffffff167c0100000000000000000000000000000000000000000000000000000000028152600401808373ffffffffffffffffffffffffffffffffffffffff1673ffffffffffffffffffffffffffffffffffffffff1681526020018273ffffffffffffffffffffffffffffffffffffffff1673ffffffffffffffffffffffffffffffffffffffff1681526020019250505060206040518083038186803b158015611a1257600080fd5b505afa158015611a26573d6000803e3d6000fd5b505050506040513d6020811015611a3c57600080fd5b8101908080519060200190929190505050611b395780806001019150503073ffffffffffffffffffffffffffffffffffffffff1663598319cf89836040518363ffffffff167c0100000000000000000000000000000000000000000000000000000000028152600401808373ffffffffffffffffffffffffffffffffffffffff1673ffffffffffffffffffffffffffffffffffffffff16815260200182815260200192505050602060405180830381600087803b158015611afc57600080fd5b505af1158015611b10573d6000803e3d6000fd5b505050506040513d6020811015611b2657600080fd5b8101908080519060200190929190505050505b611b4d600283613f6290919063ffffffff16565b8110611c5157600160009054906101000a900473ffffffffffffffffffffffffffffffffffffffff1673ffffffffffffffffffffffffffffffffffffffff1663fa0517e4896040518263ffffffff167c0100000000000000000000000000000000000000000000000000000000028152600401808273ffffffffffffffffffffffffffffffffffffffff1673ffffffffffffffffffffffffffffffffffffffff168152602001915050602060405180830381600087803b158015611c1057600080fd5b505af1158015611c24573d6000803e3d6000fd5b505050506040513d6020811015611c3a57600080fd5b810190808051906020019092919050505050611c5d565b60009450505050611d89565b611d84565b600160009054906101000a900473ffffffffffffffffffffffffffffffffffffffff1673ffffffffffffffffffffffffffffffffffffffff1663324131d989898960006040518563ffffffff167c0100000000000000000000000000000000000000000000000000000000028152600401808573ffffffffffffffffffffffffffffffffffffffff1673ffffffffffffffffffffffffffffffffffffffff16815260200180602001831515151581526020018281038252858582818152602001925080828437600081840152601f19601f82011690508083019250505095505050505050600060405180830381600087803b158015611d6057600080fd5b505af1158015611d74573d6000803e3d6000fd5b5050505060009450505050611d89565b5b5050505b509392505050565b670de0b6b3a7640000341015611e0f576040517f08c379a000000000000000000000000000000000000000000000000000000000815260040180806020018281038252601c8152602001807f526567697374726174696f6e206665652069732072657175697265640000000081525060200191505060405180910390fd5b611e1761457f565b611e2033613f76565b9050604051806040016040528060011515815260200182815250600260003373ffffffffffffffffffffffffffffffffffffffff1673ffffffffffffffffffffffffffffffffffffffff16815260200190815260200160002060008201518160000160006101000a81548160ff021916908315150217905550602082015181600101906003611eb09291906145a1565b5090505050565b6000600160009054906101000a900473ffffffffffffffffffffffffffffffffffffffff1673ffffffffffffffffffffffffffffffffffffffff16635689b249836040518263ffffffff167c0100000000000000000000000000000000000000000000000000000000028152600401808273ffffffffffffffffffffffffffffffffffffffff1673ffffffffffffffffffffffffffffffffffffffff16815260200191505060206040518083038186803b158015611f7457600080fd5b505afa158015611f88573d6000803e3d6000fd5b505050506040513d6020811015611f9e57600080fd5b81019080805190602001909291905050509050919050565b6000600160009054906101000a900473ffffffffffffffffffffffffffffffffffffffff1673ffffffffffffffffffffffffffffffffffffffff1663cd905dff6040518163ffffffff167c010000000000000000000000000000000000000000000000000000000002815260040160206040518083038186803b15801561203c57600080fd5b505afa158015612050573d6000803e3d6000fd5b505050506040513d602081101561206657600080fd5b81019080805190602001909291905050506120cc576040517f08c379a000000000000000000000000000000000000000000000000000000000815260040180806020018281038252602581526020018061476f6025913960400191505060405180910390fd5b600160009054906101000a900473ffffffffffffffffffffffffffffffffffffffff1673ffffffffffffffffffffffffffffffffffffffff1663c3c5a547336040518263ffffffff167c0100000000000000000000000000000000000000000000000000000000028152600401808273ffffffffffffffffffffffffffffffffffffffff1673ffffffffffffffffffffffffffffffffffffffff16815260200191505060206040518083038186803b15801561218757600080fd5b505afa15801561219b573d6000803e3d6000fd5b505050506040513d60208110156121b157600080fd5b8101908080519060200190929190505050612217576040517f08c379a000000000000000000000000000000000000000000000000000000000815260040180806020018281038252602a81526020018061471e602a913960400191505060405180910390fd5b600160009054906101000a900473ffffffffffffffffffffffffffffffffffffffff1673ffffffffffffffffffffffffffffffffffffffff1663598319cf84846040518363ffffffff167c0100000000000000000000000000000000000000000000000000000000028152600401808373ffffffffffffffffffffffffffffffffffffffff1673ffffffffffffffffffffffffffffffffffffffff16815260200182815260200192505050600060405180830381600087803b1580156122dc57600080fd5b505af11580156122f0573d6000803e3d6000fd5b505050506000600160009054906101000a900473ffffffffffffffffffffffffffffffffffffffff1673ffffffffffffffffffffffffffffffffffffffff16630cf70b356040518163ffffffff167c010000000000000000000000000000000000000000000000000000000002815260040160206040518083038186803b15801561237a57600080fd5b505afa15801561238e573d6000803e3d6000fd5b505050506040513d60208110156123a457600080fd5b810190808051906020019092919050505090506123cb600282613f6290919063ffffffff16565b83106124d457600160009054906101000a900473ffffffffffffffffffffffffffffffffffffffff1673ffffffffffffffffffffffffffffffffffffffff1663fa0517e4856040518263ffffffff167c0100000000000000000000000000000000000000000000000000000000028152600401808273ffffffffffffffffffffffffffffffffffffffff1673ffffffffffffffffffffffffffffffffffffffff168152602001915050602060405180830381600087803b15801561248e57600080fd5b505af11580156124a2573d6000803e3d6000fd5b505050506040513d60208110156124b857600080fd5b81019080805190602001909291905050505060019150506124da565b60009150505b92915050565b6124e861457f565b600260003373ffffffffffffffffffffffffffffffffffffffff1673ffffffffffffffffffffffffffffffffffffffff16815260200190815260200160002060000160009054906101000a900460ff166125aa576040517f08c379a000000000000000000000000000000000000000000000000000000000815260040180806020018281038252601b8152602001807f4e6f74207265676973746572656420617320616e206f7261636c65000000000081525060200191505060405180910390fd5b600260003373ffffffffffffffffffffffffffffffffffffffff1673ffffffffffffffffffffffffffffffffffffffff168152602001908152602001600020600101600380602002604051908101604052809291908260038015612649576020028201916000905b82829054906101000a900460ff1660ff16815260200190600101906020826000010492830192600103820291508084116126125790505b5050505050905090565b670de0b6b3a764000081565b6000600160009054906101000a900473ffffffffffffffffffffffffffffffffffffffff1673ffffffffffffffffffffffffffffffffffffffff1663cd905dff6040518163ffffffff167c010000000000000000000000000000000000000000000000000000000002815260040160206040518083038186803b1580156126e557600080fd5b505afa1580156126f9573d6000803e3d6000fd5b505050506040513d602081101561270f57600080fd5b8101908080519060200190929190505050612775576040517f08c379a000000000000000000000000000000000000000000000000000000000815260040180806020018281038252602581526020018061476f6025913960400191505060405180910390fd5b600160009054906101000a900473ffffffffffffffffffffffffffffffffffffffff1673ffffffffffffffffffffffffffffffffffffffff16630c11dedd336040518263ffffffff167c0100000000000000000000000000000000000000000000000000000000028152600401808273ffffffffffffffffffffffffffffffffffffffff1673ffffffffffffffffffffffffffffffffffffffff168152602001915050600060405180830381600087803b15801561283257600080fd5b505af1158015612846573d6000803e3d6000fd5b5050505090565b600061285a338888614102565b90506000612869338787614102565b90506000612878338686614102565b9050600160009054906101000a900473ffffffffffffffffffffffffffffffffffffffff1673ffffffffffffffffffffffffffffffffffffffff1663312bb0d233346040518363ffffffff167c0100000000000000000000000000000000000000000000000000000000028152600401808373ffffffffffffffffffffffffffffffffffffffff1673ffffffffffffffffffffffffffffffffffffffff16815260200182815260200192505050602060405180830381600087803b15801561293f57600080fd5b505af1158015612953573d6000803e3d6000fd5b505050506040513d602081101561296957600080fd5b810190808051906020019092919050505050600160009054906101000a900473ffffffffffffffffffffffffffffffffffffffff1673ffffffffffffffffffffffffffffffffffffffff1663aa5d0528338b8b876040518563ffffffff167c0100000000000000000000000000000000000000000000000000000000028152600401808573ffffffffffffffffffffffffffffffffffffffff1673ffffffffffffffffffffffffffffffffffffffff16815260200180602001848152602001838152602001828103825285818151815260200191508051906020019080838360005b83811015612a66578082015181840152602081019050612a4b565b50505050905090810190601f168015612a935780820380516001836020036101000a031916815260200191505b5095505050505050600060405180830381600087803b158015612ab557600080fd5b505af1158015612ac9573d6000803e3d6000fd5b50505050600160009054906101000a900473ffffffffffffffffffffffffffffffffffffffff1673ffffffffffffffffffffffffffffffffffffffff1663aa5d0528338989866040518563ffffffff167c0100000000000000000000000000000000000000000000000000000000028152600401808573ffffffffffffffffffffffffffffffffffffffff1673ffffffffffffffffffffffffffffffffffffffff16815260200180602001848152602001838152602001828103825285818151815260200191508051906020019080838360005b83811015612bb8578082015181840152602081019050612b9d565b50505050905090810190601f168015612be55780820380516001836020036101000a031916815260200191505b5095505050505050600060405180830381600087803b158015612c0757600080fd5b505af1158015612c1b573d6000803e3d6000fd5b50505050600160009054906101000a900473ffffffffffffffffffffffffffffffffffffffff1673ffffffffffffffffffffffffffffffffffffffff1663aa5d0528338787856040518563ffffffff167c0100000000000000000000000000000000000000000000000000000000028152600401808573ffffffffffffffffffffffffffffffffffffffff1673ffffffffffffffffffffffffffffffffffffffff16815260200180602001848152602001838152602001828103825285818151815260200191508051906020019080838360005b83811015612d0a578082015181840152602081019050612cef565b50505050905090810190601f168015612d375780820380516001836020036101000a031916815260200191505b5095505050505050600060405180830381600087803b158015612d5957600080fd5b505af1158015612d6d573d6000803e3d6000fd5b50505050505050505050505050565b678ac7230489e8000081565b600160009054906101000a900473ffffffffffffffffffffffffffffffffffffffff1673ffffffffffffffffffffffffffffffffffffffff1663cd905dff6040518163ffffffff167c010000000000000000000000000000000000000000000000000000000002815260040160206040518083038186803b158015612e0c57600080fd5b505afa158015612e20573d6000803e3d6000fd5b505050506040513d6020811015612e3657600080fd5b8101908080519060200190929190505050612e9c576040517f08c379a000000000000000000000000000000000000000000000000000000000815260040180806020018281038252602581526020018061476f6025913960400191505060405180910390fd5b600160009054906101000a900473ffffffffffffffffffffffffffffffffffffffff1673ffffffffffffffffffffffffffffffffffffffff1663c3c5a547336040518263ffffffff167c0100000000000000000000000000000000000000000000000000000000028152600401808273ffffffffffffffffffffffffffffffffffffffff1673ffffffffffffffffffffffffffffffffffffffff16815260200191505060206040518083038186803b158015612f5757600080fd5b505afa158015612f6b573d6000803e3d6000fd5b505050506040513d6020811015612f8157600080fd5b8101908080519060200190929190505050612fe7576040517f08c379a000000000000000000000000000000000000000000000000000000000815260040180806020018281038252602a81526020018061471e602a913960400191505060405180910390fd5b600160009054906101000a900473ffffffffffffffffffffffffffffffffffffffff1673ffffffffffffffffffffffffffffffffffffffff16635689b249336040518263ffffffff167c0100000000000000000000000000000000000000000000000000000000028152600401808273ffffffffffffffffffffffffffffffffffffffff1673ffffffffffffffffffffffffffffffffffffffff16815260200191505060206040518083038186803b1580156130a257600080fd5b505afa1580156130b6573d6000803e3d6000fd5b505050506040513d60208110156130cc57600080fd5b8101908080519060200190929190505050613132576040517f08c379a000000000000000000000000000000000000000000000000000000000815260040180806020018281038252602681526020018061469b6026913960400191505060405180910390fd5b60006131833385858080601f016020809104026020016040519081016040528093929190818152602001838380828437600081840152601f19601f8201169050808301925050505050505084614102565b9050600160009054906101000a900473ffffffffffffffffffffffffffffffffffffffff1673ffffffffffffffffffffffffffffffffffffffff1663aa5d052833868686866040518663ffffffff167c0100000000000000000000000000000000000000000000000000000000028152600401808673ffffffffffffffffffffffffffffffffffffffff1673ffffffffffffffffffffffffffffffffffffffff168152602001806020018481526020018381526020018281038252868682818152602001925080828437600081840152601f19601f8201169050808301925050509650505050505050600060405180830381600087803b15801561328657600080fd5b505af115801561329a573d6000803e3d6000fd5b5050505050505050565b6000600160009054906101000a900473ffffffffffffffffffffffffffffffffffffffff1673ffffffffffffffffffffffffffffffffffffffff1663cd905dff6040518163ffffffff167c010000000000000000000000000000000000000000000000000000000002815260040160206040518083038186803b15801561332a57600080fd5b505afa15801561333e573d6000803e3d6000fd5b505050506040513d602081101561335457600080fd5b81019080805190602001909291905050506133ba576040517f08c379a000000000000000000000000000000000000000000000000000000000815260040180806020018281038252602581526020018061476f6025913960400191505060405180910390fd5b6000341015613431576040517f08c379a000000000000000000000000000000000000000000000000000000000815260040180806020018281038252601c8152602001807f4d73672076616c7565206e6f742067726561746572207468616e20300000000081525060200191505060405180910390fd5b600160009054906101000a900473ffffffffffffffffffffffffffffffffffffffff1673ffffffffffffffffffffffffffffffffffffffff1663b60d42886040518163ffffffff167c0100000000000000000000000000000000000000000000000000000000028152600401602060405180830381600087803b1580156134b757600080fd5b505af11580156134cb573d6000803e3d6000fd5b505050506040513d60208110156134e157600080fd5b81019080805190602001909291905050505090565b8560ff16600260003373ffffffffffffffffffffffffffffffffffffffff1673ffffffffffffffffffffffffffffffffffffffff16815260200190815260200160002060010160006003811061354857fe5b602091828204019190069054906101000a900460ff1660ff1614806135d557508560ff16600260003373ffffffffffffffffffffffffffffffffffffffff1673ffffffffffffffffffffffffffffffffffffffff1681526020019081526020016000206001016001600381106135ba57fe5b602091828204019190069054906101000a900460ff1660ff16145b8061364857508560ff16600260003373ffffffffffffffffffffffffffffffffffffffff1673ffffffffffffffffffffffffffffffffffffffff16815260200190815260200160002060010160026003811061362d57fe5b602091828204019190069054906101000a900460ff1660ff16145b61369d576040517f08c379a00000000000000000000000000000000000000000000000000000000081526004018080602001828103825260238152602001806147946023913960400191505060405180910390fd5b60008686868686604051602001808660ff1660ff167f01000000000000000000000000000000000000000000000000000000000000000281526001018573ffffffffffffffffffffffffffffffffffffffff1673ffffffffffffffffffffffffffffffffffffffff166c0100000000000000000000000002815260140184848082843780830192505050828152602001955050505050506040516020818303038152906040528051906020012090506003600082815260200190815260200160002060000160149054906101000a900460ff166137c5576040517f08c379a000000000000000000000000000000000000000000000000000000000815260040180806020018281038252602f81526020018061466c602f913960400191505060405180910390fd5b6003600082815260200190815260200160002060010160008360ff1660ff1681526020019081526020016000203390806001815401808255809150509060018203906000526020600020016000909192909190916101000a81548173ffffffffffffffffffffffffffffffffffffffff021916908373ffffffffffffffffffffffffffffffffffffffff160217905550507f43c853095c2752648493c88b4baac4d580d2594ffb00c6f1d4242d844514f7838686868686604051808673ffffffffffffffffffffffffffffffffffffffff1673ffffffffffffffffffffffffffffffffffffffff168152602001806020018481526020018360ff1660ff1681526020018281038252868682818152602001925080828437600081840152601f19601f820116905080830192505050965050505050505060405180910390a1600380600083815260200190815260200160002060010160008460ff1660ff1681526020019081526020016000208054905010613a38577fe23f5229de535c091e3b7bec2665f5d698192d3b31393066e8987b7a05076b6c8686868686604051808673ffffffffffffffffffffffffffffffffffffffff1673ffffffffffffffffffffffffffffffffffffffff168152602001806020018481526020018360ff1660ff1681526020018281038252868682818152602001925080828437600081840152601f19601f820116905080830192505050965050505050505060405180910390a1613a378686868080601f016020809104026020016040519081016040528093929190818152602001838380828437600081840152601f19601f8201169050808301925050505050505085856141ca565b5b50505050505050565b6000600160009054906101000a900473ffffffffffffffffffffffffffffffffffffffff1673ffffffffffffffffffffffffffffffffffffffff1663c3c5a547836040518263ffffffff167c0100000000000000000000000000000000000000000000000000000000028152600401808273ffffffffffffffffffffffffffffffffffffffff1673ffffffffffffffffffffffffffffffffffffffff16815260200191505060206040518083038186803b158015613afe57600080fd5b505afa158015613b12573d6000803e3d6000fd5b505050506040513d6020811015613b2857600080fd5b81019080805190602001909291905050509050919050565b6000600160009054906101000a900473ffffffffffffffffffffffffffffffffffffffff1673ffffffffffffffffffffffffffffffffffffffff1663cd905dff6040518163ffffffff167c010000000000000000000000000000000000000000000000000000000002815260040160206040518083038186803b158015613bc657600080fd5b505afa158015613bda573d6000803e3d6000fd5b505050506040513d6020811015613bf057600080fd5b8101908080519060200190929190505050905090565b6000613c1133614482565b905060008186868686604051602001808660ff1660ff167f01000000000000000000000000000000000000000000000000000000000000000281526001018573ffffffffffffffffffffffffffffffffffffffff1673ffffffffffffffffffffffffffffffffffffffff166c01000000000000000000000000028152601401848480828437808301925050508281526020019550505050505060405160208183030381529060405280519060200120905060405180604001604052803373ffffffffffffffffffffffffffffffffffffffff168152602001600115158152506003600083815260200190815260200160002060008201518160000160006101000a81548173ffffffffffffffffffffffffffffffffffffffff021916908373ffffffffffffffffffffffffffffffffffffffff16021790555060208201518160000160146101000a81548160ff0219169083151502179055509050507f3ed01f2c3fc24c6b329d931e35b03e390d23497d22b3f90e15b600343e93df118287878787604051808660ff1660ff1681526020018573ffffffffffffffffffffffffffffffffffffffff1673ffffffffffffffffffffffffffffffffffffffff168152602001806020018381526020018281038252858582818152602001925080828437600081840152601f19601f820116905080830192505050965050505050505060405180910390a1505050505050565b600084848484604051602001808573ffffffffffffffffffffffffffffffffffffffff1673ffffffffffffffffffffffffffffffffffffffff166c0100000000000000000000000002815260140184805190602001908083835b60208310613e9f5780518252602082019150602081019050602083039250613e7c565b6001836020036101000a0380198251168184511680821785525050505050509050018381526020018273ffffffffffffffffffffffffffffffffffffffff1673ffffffffffffffffffffffffffffffffffffffff166c01000000000000000000000000028152601401945050505050604051602081830303815290604052805190602001209050949350505050565b600080831415613f415760009050613f5c565b818302905081838281613f5057fe5b0414613f5857fe5b8090505b92915050565b6000818381613f6d57fe5b04905092915050565b613f7e61457f565b613f8661457f565b613f8f83614482565b81600060038110613f9c57fe5b602002019060ff16908160ff168152505080600060038110613fba57fe5b602002015181600160038110613fcc57fe5b602002019060ff16908160ff16815250505b80600060038110613feb57fe5b602002015160ff168160016003811061400057fe5b602002015160ff16141561403a5761401783614482565b8160016003811061402457fe5b602002019060ff16908160ff1681525050613fde565b8060016003811061404757fe5b60200201518160026003811061405957fe5b602002019060ff16908160ff16815250505b8060006003811061407857fe5b602002015160ff168160026003811061408d57fe5b602002015160ff1614806140c85750806001600381106140a957fe5b602002015160ff16816002600381106140be57fe5b602002015160ff16145b156140f9576140d683614482565b816002600381106140e357fe5b602002019060ff16908160ff168152505061406b565b80915050919050565b6000838383604051602001808473ffffffffffffffffffffffffffffffffffffffff1673ffffffffffffffffffffffffffffffffffffffff166c0100000000000000000000000002815260140183805190602001908083835b6020831061417e578051825260208201915060208101905060208303925061415b565b6001836020036101000a03801982511681845116808217855250505050505090500182815260200193505050506040516020818303038152906040528051906020012090509392505050565b600160009054906101000a900473ffffffffffffffffffffffffffffffffffffffff1673ffffffffffffffffffffffffffffffffffffffff1663e7bdde3b858585856040518563ffffffff167c0100000000000000000000000000000000000000000000000000000000028152600401808573ffffffffffffffffffffffffffffffffffffffff1673ffffffffffffffffffffffffffffffffffffffff168152602001806020018481526020018360ff1660ff168152602001828103825285818151815260200191508051906020019080838360005b838110156142bb5780820151818401526020810190506142a0565b50505050905090810190601f1680156142e85780820380516001836020036101000a031916815260200191505b5095505050505050600060405180830381600087803b15801561430a57600080fd5b505af115801561431e573d6000803e3d6000fd5b50505050601460ff168160ff16141561447c57600160009054906101000a900473ffffffffffffffffffffffffffffffffffffffff1673ffffffffffffffffffffffffffffffffffffffff1663c8820a708585856040518463ffffffff167c0100000000000000000000000000000000000000000000000000000000028152600401808473ffffffffffffffffffffffffffffffffffffffff1673ffffffffffffffffffffffffffffffffffffffff16815260200180602001838152602001828103825284818151815260200191508051906020019080838360005b838110156144155780820151818401526020810190506143fa565b50505050905090810190601f1680156144425780820380516001836020036101000a031916815260200191505b50945050505050600060405180830381600087803b15801561446357600080fd5b505af1158015614477573d6000803e3d6000fd5b505050505b50505050565b600080600a905060008160ff166001601481819054906101000a900460ff168092919060010191906101000a81548160ff021916908360ff16021790555060ff1643034085604051602001808381526020018273ffffffffffffffffffffffffffffffffffffffff1673ffffffffffffffffffffffffffffffffffffffff166c010000000000000000000000000281526014019250505060405160208183030381529060405280519060200120600190048161453a57fe5b06905060fa600160149054906101000a900460ff1660ff161115614575576000600160146101000a81548160ff021916908360ff1602179055505b8092505050919050565b6040518060600160405280600390602082028038833980820191505090505090565b826003601f0160209004810192821561462a5791602002820160005b838211156145fb57835183826101000a81548160ff021916908360ff16021790555092602001926001016020816000010492830192600103026145bd565b80156146285782816101000a81549060ff02191690556001016020816000010492830192600103026145fb565b505b509050614637919061463b565b5090565b61466891905b8082111561466457600081816101000a81549060ff021916905550600101614641565b5090565b9056fe466c69676874206f722074696d657374616d7020646f206e6f74206d61746368206f7261636c6520726571756573744d6573736167652073656e646572206973206e6f7420612066756e646564206169726c696e65496e737572616e636520666f72207468697320666c696768742068617320616c7265616479206265656e20707572636861736564276169726c696e654164647265737327206d75737420626520612076616c696420616464726573732e4d6573736167652073656e646572206973206e6f7420612072656769737465726564206169726c696e654169726c696e6520697320616c726561647920612072656769737465726564206169726c696e65436f6e74726163742069732063757272656e746c79206e6f74206f7065726174696f6e616c496e64657820646f6573206e6f74206d61746368206f7261636c652072657175657374496e737572616e63652063616e6e6f7420636f7374206d6f7265207468616e2031206574686572a265627a7a723158207d8aac7f2d9a30874b851a2282e593815b946bfb0e8c0af1baaa1fa5873a2e5c64736f6c63430005110032",
  "source": "pragma solidity ^0.5.10;\r\n\r\n// It's important to avoid vulnerabilities due to numeric overflow bugs\r\n// OpenZeppelin's SafeMath library, when used correctly, protects agains such bugs\r\n// More info: https://www.nccgroup.trust/us/about-us/newsroom-and-events/blog/2018/november/smart-contract-insecurity-bad-arithmetic/\r\n\r\nimport \"../node_modules/openzeppelin-solidity/contracts/math/SafeMath.sol\";\r\nimport \"../contracts/FlightSuretyData.sol\";\r\n\r\n\r\n/************************************************** */\r\n/* FlightSurety Smart Contract                      */\r\n/************************************************** */\r\ncontract FlightSuretyApp {\r\n    using SafeMath for uint256; // Allow SafeMath functions to be called for all uint256 types (similar to \"prototype\" in Javascript)\r\n\r\n    /********************************************************************************************/\r\n    /*                                       DATA VARIABLES                                     */\r\n    /********************************************************************************************/\r\n\r\n    // Flight status codees\r\n    uint8 private constant STATUS_CODE_UNKNOWN = 0;\r\n    uint8 private constant STATUS_CODE_ON_TIME = 10;\r\n    uint8 private constant STATUS_CODE_LATE_AIRLINE = 20;\r\n    uint8 private constant STATUS_CODE_LATE_WEATHER = 30;\r\n    uint8 private constant STATUS_CODE_LATE_TECHNICAL = 40;\r\n    uint8 private constant STATUS_CODE_LATE_OTHER = 50;\r\n\r\n    address private contractOwner;          // Account used to deploy contract\r\n\r\n    FlightSuretyData flightSuretyData;\r\n    uint8 private constant MIN_REG_AIRLINES = 4;\r\n    uint256 public constant MAX_INS_PRICE = 1 ether;\r\n    uint256 public constant MIN_FUNDS = 10 ether;\r\n \r\n    /********************************************************************************************/\r\n    /*                                       FUNCTION MODIFIERS                                 */\r\n    /********************************************************************************************/\r\n\r\n    // Modifiers help avoid duplication of code. They are typically used to validate something\r\n    // before a function is allowed to be executed.\r\n\r\n    /**\r\n    * @dev Modifier that requires the \"operational\" boolean variable to be \"true\"\r\n    *      This is used on all state changing functions to pause the contract in \r\n    *      the event there is an issue that needs to be fixed\r\n    */\r\n    modifier requireIsOperational() \r\n    {\r\n         // Modify to call data contract's status\r\n        require(flightSuretyData.isOperational(), \"Contract is currently not operational\");  \r\n        _;  // All modifiers require an \"_\" which indicates where the function body will be added\r\n    }\r\n\r\n    modifier requireSenderIsRegistered() \r\n    {\r\n         // Modify to call sender trying to register an airline is an already registered airline\r\n        require(flightSuretyData.isRegistered(msg.sender), \"Message sender is not a registered airline\");  \r\n        _;  // All modifiers require an \"_\" which indicates where the function body will be added\r\n    }\r\n\r\n    modifier requireSenderIsFunded() \r\n    {\r\n         // Modify to call sender trying to register an airline is an already funded airline\r\n        require(flightSuretyData.isFunded(msg.sender), \"Message sender is not a funded airline\");  \r\n        _;  // All modifiers require an \"_\" which indicates where the function body will be added\r\n    }\r\n\r\n    modifier requireAirlineIsRegistered(address airlineAddress) \r\n    {\r\n         // Modify to call sender trying to register an airline is an already registered airline\r\n        require(flightSuretyData.isRegistered(airlineAddress), \"Airline is not a registered airline so unable to register flights\");  \r\n        _;  // All modifiers require an \"_\" which indicates where the function body will be added\r\n    }\r\n\r\n    modifier requireAirlineIsNotRegistered(address newAirlineAddress) \r\n    {\r\n         // Modify to call sender trying to register an airline is an already registered airline\r\n        require(!flightSuretyData.isRegistered(newAirlineAddress), \"Airline is already a registered airline\");  \r\n        _;  // All modifiers require an \"_\" which indicates where the function body will be added\r\n    }\r\n\r\n    modifier requireInsuranceNotYetPurchased(address airline, string memory flightNumber, uint256 departureTime) \r\n    {\r\n         // Modify to call sender trying to register an airline is an already registered airline\r\n        require(!flightSuretyData.insPurchaseStatus(getInsuranceContractKey(airline, flightNumber, departureTime, msg.sender)), \"Insurance for this flight has already been purchased\");  \r\n        _;  // All modifiers require an \"_\" which indicates where the function body will be added\r\n    }\r\n\r\n    modifier requireInsuranceAmountMax(uint256 insuranceAmount)\r\n    {\r\n        require(insuranceAmount <= 1 ether, \"Insurance cannot cost more than 1 ether\");\r\n        _;\r\n    }\r\n    \r\n    /**\r\n    * @dev Modifier that requires the \"ContractOwner\" account to be the function caller\r\n    */\r\n    modifier requireContractOwner()\r\n    {\r\n        require(msg.sender == contractOwner, \"Caller is not contract owner\");\r\n        _;\r\n    }\r\n\r\n    modifier requirePositiveValue()\r\n    {\r\n        require(msg.value >= 0, \"Msg value not greater than 0\");\r\n        _;\r\n    }\r\n\r\n    /********************************************************************************************/\r\n    /*                                       CONSTRUCTOR                                        */\r\n    /********************************************************************************************/\r\n\r\n    /**\r\n    * @dev Contract constructor\r\n    *\r\n    */\r\n    constructor\r\n                                (\r\n                                    address payable datacontract\r\n                                ) \r\n                                public \r\n    {\r\n        contractOwner = msg.sender;\r\n        flightSuretyData = FlightSuretyData(datacontract);\r\n    }\r\n\r\n    /********************************************************************************************/\r\n    /*                                       UTILITY FUNCTIONS                                  */\r\n    /********************************************************************************************/\r\n\r\n    function isOperational() \r\n                            public \r\n                            view \r\n                            returns(bool) \r\n    {\r\n        return flightSuretyData.isOperational();  // Modify to call data contract's status\r\n    }\r\n\r\n    function isRegistered(address airlineAddress) \r\n                            public \r\n                            view \r\n                            returns(bool) \r\n    {\r\n        return flightSuretyData.isRegistered(airlineAddress);  // Modify to call data contract's status\r\n    }\r\n\r\n    function isFunded(address airlineAddress) \r\n                            public \r\n                            view \r\n                            returns(bool) \r\n    {\r\n        return flightSuretyData.isFunded(airlineAddress);  // Modify to call data contract's status\r\n    }\r\n\r\n    function alreadyQueued(address airlineAddress) \r\n                            public \r\n                            view \r\n                            returns(bool) \r\n    {\r\n        return flightSuretyData.alreadyQueued(airlineAddress);  // Modify to call data contract's status\r\n    }\r\n\r\n    /********************************************************************************************/\r\n    /*                                     SMART CONTRACT FUNCTIONS                             */\r\n    /********************************************************************************************/\r\n\r\n  \r\n\r\n   function regAirline\r\n                            (   address newAirlineAddress,\r\n                                string calldata airlineName\r\n                            )\r\n                            external\r\n                            requireIsOperational\r\n                            requireSenderIsRegistered\r\n                            requireSenderIsFunded\r\n                            requireAirlineIsNotRegistered(newAirlineAddress)\r\n                            returns(bool success)\r\n    {\r\n        require(newAirlineAddress != address(0), \"'airlineAddress' must be a valid address.\");\r\n        \r\n        bool isQueuedButNotYetRegistered = flightSuretyData.alreadyQueued(newAirlineAddress);\r\n        uint256 regAirCount = flightSuretyData.regAirCount();\r\n        uint256 numAirlineVotes = flightSuretyData.airVoteCount(newAirlineAddress);\r\n\r\n        if(regAirCount < MIN_REG_AIRLINES){\r\n            \r\n            flightSuretyData.regAirline(newAirlineAddress, airlineName, true);\r\n        \r\n        } else { \r\n            \r\n            if(isQueuedButNotYetRegistered){\r\n\r\n                if(!flightSuretyData.voteStatus(newAirlineAddress, msg.sender)){\r\n                    numAirlineVotes++;\r\n                    this.voteForAirReg(newAirlineAddress, numAirlineVotes);\r\n                }\r\n\r\n                if(numAirlineVotes >= regAirCount.div(2) ){\r\n                    \r\n                    flightSuretyData.regQueuedAirline(newAirlineAddress);\r\n\r\n                } else {\r\n                    return false;\r\n                }\r\n            } else {\r\n\r\n                flightSuretyData.regAirline(newAirlineAddress, airlineName, false);\r\n                return false;\r\n            }\r\n        }\r\n    }\r\n\r\n    function voteForAirReg(address airlineAddress, uint256 updatedNumVotes) \r\n                            external\r\n                            requireIsOperational\r\n                            requireSenderIsRegistered\r\n                            returns(bool)\r\n    {\r\n        flightSuretyData.voteForAirReg(airlineAddress, updatedNumVotes);\r\n\r\n        uint256 regAirCount = flightSuretyData.regAirCount();\r\n        \r\n        if(updatedNumVotes >= regAirCount.div(2)){\r\n            flightSuretyData.regQueuedAirline(airlineAddress);\r\n            return true;\r\n        } else {\r\n            return false;\r\n        }\r\n    }\r\n   \r\n\r\n   /**\r\n    * @dev Register a future flight for insuring.\r\n    *\r\n    */  \r\n    function regFlight\r\n                                (\r\n                                    string calldata flightNumber,\r\n                                    uint256 departureTime\r\n                                )\r\n                                external\r\n                                requireIsOperational\r\n                                requireSenderIsRegistered // airline is msg.sender\r\n                                requireSenderIsFunded\r\n    {\r\n        bytes32 flightKey = getFlightKey(msg.sender, flightNumber, departureTime);\r\n\r\n        flightSuretyData.regFlight(msg.sender, flightNumber, departureTime, flightKey);\r\n    }\r\n    \r\n   /**\r\n    * @dev Called after oracle has updated flight status\r\n    *\r\n    */  \r\n    function processFlightStatus\r\n                                (\r\n                                    address airline,\r\n                                    string memory flight,\r\n                                    uint256 timestamp,\r\n                                    uint8 statusCode\r\n                                )\r\n                                internal\r\n    {\r\n\r\n        flightSuretyData.processFlightStatus(airline, flight, timestamp, statusCode);\r\n\r\n        if (statusCode == STATUS_CODE_LATE_AIRLINE){\r\n\r\n            flightSuretyData.creditInsurees(airline, flight, timestamp);\r\n        \r\n        }\r\n\r\n    }\r\n\r\n    function fundAirlineAndRegisterInitialFlights\r\n                                (\r\n                                    string memory flight1,\r\n                                    uint256 timestamp1,    // departure time\r\n                                    string memory flight2,\r\n                                    uint256 timestamp2,  \r\n                                    string memory flight3,\r\n                                    uint256 timestamp3 \r\n                                )\r\n                                public\r\n                                payable\r\n    {\r\n        bytes32 flightKey1 = getFlightKey(msg.sender, flight1, timestamp1);\r\n        bytes32 flightKey2 = getFlightKey(msg.sender, flight2, timestamp2);\r\n        bytes32 flightKey3 = getFlightKey(msg.sender, flight3, timestamp3);\r\n\r\n        flightSuretyData.fundInitAirline(msg.sender, msg.value);\r\n        flightSuretyData.regFlight(msg.sender, flight1, timestamp1, flightKey1);\r\n        flightSuretyData.regFlight(msg.sender, flight2, timestamp2, flightKey2);\r\n        flightSuretyData.regFlight(msg.sender, flight3, timestamp3, flightKey3);       \r\n    }\r\n\r\n    function fund\r\n                            (  \r\n                            )\r\n                            public\r\n                            payable\r\n                            requireIsOperational\r\n                            requirePositiveValue\r\n                            returns(bool)\r\n    {   \r\n        flightSuretyData.fund();\r\n    }\r\n\r\n    function withdrawPayouts\r\n                            (  \r\n                            )\r\n                            public\r\n                            payable\r\n                            requireIsOperational\r\n                            returns(bool)\r\n    {   \r\n        flightSuretyData.pay(msg.sender);\r\n    }\r\n\r\n    /**\r\n    * @dev Buy insurance for a flight\r\n    *\r\n    */   \r\n    function buy\r\n                            (   \r\n                                address airline,\r\n                                string calldata flightNumber,\r\n                                uint256 departureTime,   \r\n                                uint256 insuranceAmount                            \r\n                            )\r\n                            external\r\n                            payable\r\n                            requireIsOperational\r\n                            requirePositiveValue\r\n                            requireInsuranceNotYetPurchased(airline, flightNumber, departureTime)\r\n                            requireInsuranceAmountMax(insuranceAmount)\r\n    {\r\n        uint256 payoutAmount = (insuranceAmount.mul(3)).div(2);\r\n\r\n        flightSuretyData.buy(airline, flightNumber, departureTime, msg.sender, insuranceAmount, payoutAmount);   // msg.sender is passenger\r\n    }\r\n\r\n    // Generate a request for oracles to fetch flight information\r\n    // Intended to be triggered from the UI\r\n    function fetchFlightStatus\r\n                        (\r\n                            address airline,\r\n                            string calldata flight,\r\n                            uint256 timestamp                            \r\n                        )\r\n                        external\r\n    {\r\n        uint8 index = getRandomIndex(msg.sender);\r\n\r\n        // Generate a unique key for storing the request\r\n        bytes32 key = keccak256(abi.encodePacked(index, airline, flight, timestamp));\r\n        oracleResponses[key] = ResponseInfo({\r\n                                                requester: msg.sender,\r\n                                                isOpen: true\r\n                                            });\r\n\r\n        emit OracleRequest(index, airline, flight, timestamp);\r\n    } \r\n\r\n\r\n// region ORACLE MANAGEMENT\r\n\r\n    // Incremented to add pseudo-randomness at various points\r\n    uint8 private nonce = 0;    \r\n\r\n    // Fee to be paid when registering oracle\r\n    uint256 public constant REGISTRATION_FEE = 1 ether;\r\n\r\n    // Number of oracles that must respond for valid status\r\n    uint256 private constant MIN_RESPONSES = 3;\r\n\r\n\r\n    struct Oracle {\r\n        bool isRegistered;\r\n        uint8[3] indexes;        \r\n    }\r\n\r\n    // Track all registered oracles\r\n    mapping(address => Oracle) private oracles;\r\n\r\n    // Model for responses from oracles\r\n    struct ResponseInfo {\r\n        address requester;                              // Account that requested status\r\n        bool isOpen;                                    // If open, oracle responses are accepted\r\n        mapping(uint8 => address[]) responses;          // Mapping key is the status code reported\r\n                                                        // This lets us group responses and identify\r\n                                                        // the response that majority of the oracles\r\n    }\r\n\r\n    // Track all oracle responses\r\n    // Key = hash(index, flight, timestamp)\r\n    mapping(bytes32 => ResponseInfo) private oracleResponses;\r\n\r\n    // Event fired each time an oracle submits a response\r\n    event FlightStatusInfo(address airline, string flight, uint256 timestamp, uint8 status);\r\n\r\n    event OracleReport(address airline, string flight, uint256 timestamp, uint8 status);\r\n\r\n    // Event fired when flight status request is submitted\r\n    // Oracles track this and if they have a matching index\r\n    // they fetch data and submit a response\r\n    event OracleRequest(uint8 index, address airline, string flight, uint256 timestamp);\r\n\r\n\r\n    // Register an oracle with the contract\r\n    function registerOracle\r\n                            (\r\n                            )\r\n                            external\r\n                            payable\r\n    {\r\n        // Require registration fee\r\n        require(msg.value >= REGISTRATION_FEE, \"Registration fee is required\");\r\n\r\n        uint8[3] memory indexes = generateIndexes(msg.sender);\r\n\r\n        oracles[msg.sender] = Oracle({\r\n                                        isRegistered: true,\r\n                                        indexes: indexes\r\n                                    });\r\n    }\r\n\r\n    function getMyIndexes\r\n                            (\r\n                            )\r\n                            view\r\n                            external\r\n                            returns(uint8[3] memory)\r\n    {\r\n        require(oracles[msg.sender].isRegistered, \"Not registered as an oracle\");\r\n\r\n        return oracles[msg.sender].indexes;\r\n    }\r\n\r\n\r\n\r\n\r\n    // Called by oracle when a response is available to an outstanding request\r\n    // For the response to be accepted, there must be a pending request that is open\r\n    // and matches one of the three Indexes randomly assigned to the oracle at the\r\n    // time of registration (i.e. uninvited oracles are not welcome)\r\n    function submitOracleResponse\r\n                        (\r\n                            uint8 index,\r\n                            address airline,\r\n                            string calldata flight,\r\n                            uint256 timestamp,\r\n                            uint8 statusCode\r\n                        )\r\n                        external\r\n    {\r\n        require((oracles[msg.sender].indexes[0] == index) || (oracles[msg.sender].indexes[1] == index) || (oracles[msg.sender].indexes[2] == index), \"Index does not match oracle request\");\r\n\r\n\r\n        bytes32 key = keccak256(abi.encodePacked(index, airline, flight, timestamp)); \r\n        require(oracleResponses[key].isOpen, \"Flight or timestamp do not match oracle request\");\r\n\r\n        oracleResponses[key].responses[statusCode].push(msg.sender);\r\n\r\n        // Information isn't considered verified until at least MIN_RESPONSES\r\n        // oracles respond with the *** same *** information\r\n        emit OracleReport(airline, flight, timestamp, statusCode);\r\n        if (oracleResponses[key].responses[statusCode].length >= MIN_RESPONSES) {\r\n\r\n            emit FlightStatusInfo(airline, flight, timestamp, statusCode);\r\n\r\n            // Handle flight status as appropriate\r\n            processFlightStatus(airline, flight, timestamp, statusCode);\r\n        }\r\n    }\r\n\r\n\r\n    function getFlightKey\r\n                        (\r\n                            address airline,\r\n                            string memory flight,\r\n                            uint256 timestamp\r\n                        )\r\n                        pure\r\n                        internal\r\n                        returns(bytes32) \r\n    {\r\n        return keccak256(abi.encodePacked(airline, flight, timestamp));\r\n    }\r\n\r\n    function getInsuranceContractKey\r\n                        (\r\n                            address airline,\r\n                            string memory flight,\r\n                            uint256 timestamp,\r\n                            address passenger\r\n                        )\r\n                        pure\r\n                        internal\r\n                        returns(bytes32) \r\n    {\r\n        return keccak256(abi.encodePacked(airline, flight, timestamp, passenger));\r\n    }\r\n\r\n    // Returns array of three non-duplicating integers from 0-9\r\n    function generateIndexes\r\n                            (                       \r\n                                address account         \r\n                            )\r\n                            internal\r\n                            returns(uint8[3] memory)\r\n    {\r\n        uint8[3] memory indexes;\r\n        indexes[0] = getRandomIndex(account);\r\n        \r\n        indexes[1] = indexes[0];\r\n        while(indexes[1] == indexes[0]) {\r\n            indexes[1] = getRandomIndex(account);\r\n        }\r\n\r\n        indexes[2] = indexes[1];\r\n        while((indexes[2] == indexes[0]) || (indexes[2] == indexes[1])) {\r\n            indexes[2] = getRandomIndex(account);\r\n        }\r\n\r\n        return indexes;\r\n    }\r\n\r\n    // Returns array of three non-duplicating integers from 0-9\r\n    function getRandomIndex\r\n                            (\r\n                                address account\r\n                            )\r\n                            internal\r\n                            returns (uint8)\r\n    {\r\n        uint8 maxValue = 10;\r\n\r\n        // Pseudo random number...the incrementing nonce adds variation\r\n        uint8 random = uint8(uint256(keccak256(abi.encodePacked(blockhash(block.number - nonce++), account))) % maxValue);\r\n\r\n        if (nonce > 250) {\r\n            nonce = 0;  // Can only fetch blockhashes for last 256 blocks so we adapt\r\n        }\r\n\r\n        return random;\r\n    }\r\n\r\n}   \r\n",
  "sourcePath": "C:/Users/mzeil/Desktop/Working Files/CC5 Project Submission/GitClone/FlightSurety/contracts/FlightSuretyApp.sol",
  "compiler": {
    "name": "solc",
    "version": "0.5.17+commit.d19bba13.Emscripten.clang"
  },
  "schemaVersion": "3.0.3",
  "updatedAt": "2022-08-30T04:07:52.453Z",
  "devdoc": {
    "methods": {
      "buy(address,string,uint256,uint256)": {
        "details": "Buy insurance for a flight     "
      },
      "constructor": {
        "details": "Contract constructor     "
      },
      "regFlight(string,uint256)": {
        "details": "Register a future flight for insuring.     "
      }
    }
  },
  "userdoc": {
    "methods": {
      "isOperational()": {
        "notice": "*****************************************************************************************"
      },
      "regAirline(address,string)": {
        "notice": "*****************************************************************************************"
      }
    },
    "notice": "************************************************ "
  }
}